{
	"data": {
		"bytecode": {
			"linkReferences": {},
			"object": "608060405260036002556006600355348015610019575f5ffd5b50604051613109380380613109833981810160405281019061003b9190610308565b8160015f6101000a81548173ffffffffffffffffffffffffffffffffffffffff021916908373ffffffffffffffffffffffffffffffffffffffff160217905550825f5f6101000a81548173ffffffffffffffffffffffffffffffffffffffff021916908373ffffffffffffffffffffffffffffffffffffffff1602179055505f5f90505b815181101561014457600160065f8484815181106100e0576100df610374565b5b602002602001015173ffffffffffffffffffffffffffffffffffffffff1673ffffffffffffffffffffffffffffffffffffffff1681526020019081526020015f205f6101000a81548160ff02191690831515021790555080806001019150506100bf565b505050506103a1565b5f604051905090565b5f5ffd5b5f5ffd5b5f73ffffffffffffffffffffffffffffffffffffffff82169050919050565b5f6101878261015e565b9050919050565b6101978161017d565b81146101a1575f5ffd5b50565b5f815190506101b28161018e565b92915050565b5f5ffd5b5f601f19601f8301169050919050565b7f4e487b71000000000000000000000000000000000000000000000000000000005f52604160045260245ffd5b610202826101bc565b810181811067ffffffffffffffff82111715610221576102206101cc565b5b80604052505050565b5f61023361014d565b905061023f82826101f9565b919050565b5f67ffffffffffffffff82111561025e5761025d6101cc565b5b602082029050602081019050919050565b5f5ffd5b5f61028561028084610244565b61022a565b905080838252602082019050602084028301858111156102a8576102a761026f565b5b835b818110156102d157806102bd88826101a4565b8452602084019350506020810190506102aa565b5050509392505050565b5f82601f8301126102ef576102ee6101b8565b5b81516102ff848260208601610273565b91505092915050565b5f5f5f6060848603121561031f5761031e610156565b5b5f61032c868287016101a4565b935050602061033d868287016101a4565b925050604084015167ffffffffffffffff81111561035e5761035d61015a565b5b61036a868287016102db565b9150509250925092565b7f4e487b71000000000000000000000000000000000000000000000000000000005f52603260045260245ffd5b612d5b806103ae5f395ff3fe6080604052600436106100c1575f3560e01c80636a18ff7a1161007e578063a813995711610058578063a813995714610243578063b1e44d8f1461026d578063c7dde86d146102a9578063da35c664146102e5576100c1565b80636a18ff7a146101b75780638259d553146101df57806397e6a96014610207576100c1565b80630185921e146100c557806302845a2d146100ed5780631b751191146100f75780632c72fdfc146101215780634bf92a9f1461016357806359929ee81461018d575b5f5ffd5b3480156100d0575f5ffd5b506100eb60048036038101906100e69190611e94565b61030f565b005b6100f5610579565b005b348015610102575f5ffd5b5061010b610822565b6040516101189190611ef3565b60405180910390f35b34801561012c575f5ffd5b5061014760048036038101906101429190611f0c565b610828565b60405161015a9796959493929190612045565b60405180910390f35b34801561016e575f5ffd5b506101776108e2565b604051610184919061210d565b60405180910390f35b348015610198575f5ffd5b506101a1610906565b6040516101ae9190612146565b60405180910390f35b3480156101c2575f5ffd5b506101dd60048036038101906101d89190612194565b61092b565b005b3480156101ea575f5ffd5b5061020560048036038101906102009190611f0c565b611148565b005b348015610212575f5ffd5b5061022d60048036038101906102289190611f0c565b61178e565b60405161023a91906122d7565b60405180910390f35b34801561024e575f5ffd5b50610257611894565b6040516102649190611ef3565b60405180910390f35b348015610278575f5ffd5b50610293600480360381019061028e91906122f7565b61189a565b6040516102a09190612331565b60405180910390f35b3480156102b4575f5ffd5b506102cf60048036038101906102ca9190612390565b6118ec565b6040516102dc9190611ef3565b60405180910390f35b3480156102f0575f5ffd5b506102f9611c99565b6040516103069190611ef3565b60405180910390f35b3373ffffffffffffffffffffffffffffffffffffffff168373ffffffffffffffffffffffffffffffffffffffff160361037d576040517f08c379a000000000000000000000000000000000000000000000000000000000815260040161037490612473565b60405180910390fd5b5f81036103bf576040517f08c379a00000000000000000000000000000000000000000000000000000000081526004016103b6906124db565b60405180910390fd5b80600a5f8481526020019081526020015f205f8573ffffffffffffffffffffffffffffffffffffffff1673ffffffffffffffffffffffffffffffffffffffff1681526020019081526020015f205f82825461041a9190612526565b92505081905550600c5f3373ffffffffffffffffffffffffffffffffffffffff1673ffffffffffffffffffffffffffffffffffffffff1681526020019081526020015f205f8381526020019081526020015f2060405180604001604052808573ffffffffffffffffffffffffffffffffffffffff16815260200183815250908060018154018082558091505060019003905f5260205f2090600202015f909190919091505f820151815f015f6101000a81548173ffffffffffffffffffffffffffffffffffffffff021916908373ffffffffffffffffffffffffffffffffffffffff160217905550602082015181600101555050818373ffffffffffffffffffffffffffffffffffffffff163373ffffffffffffffffffffffffffffffffffffffff167f24d7bda8602b916d64417f0dbfe2e2e88ec9b1157bd9f596dfdb91ba26624e048460405161056c9190611ef3565b60405180910390a4505050565b5f34116105bb576040517f08c379a00000000000000000000000000000000000000000000000000000000081526004016105b2906125a3565b60405180910390fd5b5f670de0b6b3a7640000346105d091906125ee565b90505f60015f9054906101000a900473ffffffffffffffffffffffffffffffffffffffff1673ffffffffffffffffffffffffffffffffffffffff166370a0823160015f9054906101000a900473ffffffffffffffffffffffffffffffffffffffff1673ffffffffffffffffffffffffffffffffffffffff16638da5cb5b6040518163ffffffff1660e01b8152600401602060405180830381865afa15801561067a573d5f5f3e3d5ffd5b505050506040513d601f19601f8201168201806040525081019061069e9190612632565b6040518263ffffffff1660e01b81526004016106ba919061265d565b602060405180830381865afa1580156106d5573d5f5f3e3d5ffd5b505050506040513d601f19601f820116820180604052508101906106f9919061268a565b90508181101561073e576040517f08c379a0000000000000000000000000000000000000000000000000000000008152600401610735906126ff565b60405180910390fd5b5f60015f9054906101000a900473ffffffffffffffffffffffffffffffffffffffff1673ffffffffffffffffffffffffffffffffffffffff1663a9059cbb33856040518363ffffffff1660e01b815260040161079b92919061271d565b6020604051808303815f875af11580156107b7573d5f5f3e3d5ffd5b505050506040513d601f19601f820116820180604052508101906107db9190612758565b90508061081d576040517f08c379a0000000000000000000000000000000000000000000000000000000008152600401610814906127cd565b60405180910390fd5b505050565b60025481565b5f5f5f5f5f5f5f5f60055f8a81526020019081526020015f209050805f015f9054906101000a900460ff1681600101548260020154836007015f9054906101000a900460ff168460070160019054906101000a900460ff16856003015f9054906101000a900473ffffffffffffffffffffffffffffffffffffffff16866004015f9054906101000a900473ffffffffffffffffffffffffffffffffffffffff16975097509750975097509750975050919395979092949650565b5f5f9054906101000a900473ffffffffffffffffffffffffffffffffffffffff1681565b60015f9054906101000a900473ffffffffffffffffffffffffffffffffffffffff1681565b5f60055f8581526020019081526020015f20905080600201544210610985576040517f08c379a000000000000000000000000000000000000000000000000000000000815260040161097c90612835565b60405180910390fd5b80600a015f3373ffffffffffffffffffffffffffffffffffffffff1673ffffffffffffffffffffffffffffffffffffffff1681526020019081526020015f205f9054906101000a900460ff1615610a11576040517f08c379a0000000000000000000000000000000000000000000000000000000008152600401610a089061289d565b60405180910390fd5b5f8311610a53576040517f08c379a0000000000000000000000000000000000000000000000000000000008152600401610a4a90612905565b60405180910390fd5b5f5f9054906101000a900473ffffffffffffffffffffffffffffffffffffffff1673ffffffffffffffffffffffffffffffffffffffff166323b872dd3330866040518463ffffffff1660e01b8152600401610ab093929190612923565b6020604051808303815f875af1158015610acc573d5f5f3e3d5ffd5b505050506040513d601f19601f82011682018060405250810190610af09190612758565b5060015f9054906101000a900473ffffffffffffffffffffffffffffffffffffffff1673ffffffffffffffffffffffffffffffffffffffff166323b872dd3330866040518463ffffffff1660e01b8152600401610b4f93929190612923565b6020604051808303815f875af1158015610b6b573d5f5f3e3d5ffd5b505050506040513d601f19601f82011682018060405250810190610b8f9190612758565b505f600354600b5f3373ffffffffffffffffffffffffffffffffffffffff1673ffffffffffffffffffffffffffffffffffffffff1681526020019081526020015f2054610bdc91906125ee565b60025485610bea91906125ee565b610bf49190612526565b905060075f8681526020019081526020015f2033908060018154018082558091505060019003905f5260205f20015f9091909190916101000a81548173ffffffffffffffffffffffffffffffffffffffff021916908373ffffffffffffffffffffffffffffffffffffffff1602179055508360085f8781526020019081526020015f205f3373ffffffffffffffffffffffffffffffffffffffff1673ffffffffffffffffffffffffffffffffffffffff1681526020019081526020015f20819055508215610cdb5780826005015f828254610ccf9190612526565b92505081905550610cf6565b80826006015f828254610cee9190612526565b925050819055505b8160050154826009015411158015610d135750610d1285611c9f565b5b1561106c575f6005811115610d2b57610d2a611f37565b5b8260070160019054906101000a900460ff166005811115610d4f57610d4e611f37565b5b1480610d90575060016005811115610d6a57610d69611f37565b5b8260070160019054906101000a900460ff166005811115610d8e57610d8d611f37565b5b145b15610e5f575f5f9054906101000a900473ffffffffffffffffffffffffffffffffffffffff1673ffffffffffffffffffffffffffffffffffffffff166323b872dd30846004015f9054906101000a900473ffffffffffffffffffffffffffffffffffffffff1685600901546040518463ffffffff1660e01b8152600401610e1993929190612923565b6020604051808303815f875af1158015610e35573d5f5f3e3d5ffd5b505050506040513d601f19601f82011682018060405250810190610e599190612758565b5061106b565b60026005811115610e7357610e72611f37565b5b8260070160019054906101000a900460ff166005811115610e9757610e96611f37565b5b03610f1957600160065f846004015f9054906101000a900473ffffffffffffffffffffffffffffffffffffffff1673ffffffffffffffffffffffffffffffffffffffff1673ffffffffffffffffffffffffffffffffffffffff1681526020019081526020015f205f6101000a81548160ff02191690831515021790555061106a565b60036005811115610f2d57610f2c611f37565b5b8260070160019054906101000a900460ff166005811115610f5157610f50611f37565b5b03610fd2575f60065f846004015f9054906101000a900473ffffffffffffffffffffffffffffffffffffffff1673ffffffffffffffffffffffffffffffffffffffff1673ffffffffffffffffffffffffffffffffffffffff1681526020019081526020015f205f6101000a81548160ff021916908315150217905550611069565b60046005811115610fe657610fe5611f37565b5b8260070160019054906101000a900460ff16600581111561100a57611009611f37565b5b0361101f578160080154600281905550611068565b60058081111561103257611031611f37565b5b8260070160019054906101000a900460ff16600581111561105657611055611f37565b5b036110675781600801546003819055505b5b5b5b5b5b600182600a015f3373ffffffffffffffffffffffffffffffffffffffff1673ffffffffffffffffffffffffffffffffffffffff1681526020019081526020015f205f6101000a81548160ff021916908315150217905550843373ffffffffffffffffffffffffffffffffffffffff167fa7a13493d42ea36718b051b30836352b5e73878411496329c2793fa0e2aa0aad858460405161110c929190612958565b60405180910390a3847fbcf6a68a2f901be4a23a41b53acd7697893a7e34def4e28acba584da75283b6760405160405180910390a25050505050565b60065f3373ffffffffffffffffffffffffffffffffffffffff1673ffffffffffffffffffffffffffffffffffffffff1681526020019081526020015f205f9054906101000a900460ff166111d1576040517f08c379a00000000000000000000000000000000000000000000000000000000081526004016111c8906129c9565b60405180910390fd5b5f60055f8381526020019081526020015f209050806002015442111561122c576040517f08c379a000000000000000000000000000000000000000000000000000000000815260040161122390612a31565b60405180910390fd5b806003015f9054906101000a900473ffffffffffffffffffffffffffffffffffffffff1673ffffffffffffffffffffffffffffffffffffffff163373ffffffffffffffffffffffffffffffffffffffff16146112bd576040517f08c379a00000000000000000000000000000000000000000000000000000000081526004016112b490612a99565b60405180910390fd5b8060070160039054906101000a900460ff161561130f576040517f08c379a000000000000000000000000000000000000000000000000000000000815260040161130690612b01565b60405180910390fd5b60018160070160036101000a81548160ff0219169083151502179055506002815f015f6101000a81548160ff0219169083600281111561135257611351611f37565b5b02179055505f60075f8481526020019081526020015f208054806020026020016040519081016040528092919081815260200182805480156113e657602002820191905f5260205f20905b815f9054906101000a900473ffffffffffffffffffffffffffffffffffffffff1673ffffffffffffffffffffffffffffffffffffffff168152602001906001019080831161139d575b505050505090505f5f90505b815181101561156e575f82828151811061140f5761140e612b1f565b5b602002602001015190505f60085f8781526020019081526020015f205f8373ffffffffffffffffffffffffffffffffffffffff1673ffffffffffffffffffffffffffffffffffffffff1681526020019081526020015f205490505f81111561155f575f5f9054906101000a900473ffffffffffffffffffffffffffffffffffffffff1673ffffffffffffffffffffffffffffffffffffffff1663a9059cbb83836040518363ffffffff1660e01b81526004016114cc92919061271d565b6020604051808303815f875af11580156114e8573d5f5f3e3d5ffd5b505050506040513d601f19601f8201168201806040525081019061150c9190612758565b505f60085f8881526020019081526020015f205f8473ffffffffffffffffffffffffffffffffffffffff1673ffffffffffffffffffffffffffffffffffffffff1681526020019081526020015f20819055505b505080806001019150506113f2565b505f60075f8581526020019081526020015f208054806020026020016040519081016040528092919081815260200182805480156115fe57602002820191905f5260205f20905b815f9054906101000a900473ffffffffffffffffffffffffffffffffffffffff1673ffffffffffffffffffffffffffffffffffffffff16815260200190600101908083116115b5575b505050505090505f5f90505b8151811015611787575f82828151811061162757611626612b1f565b5b602002602001015190505f600a5f8881526020019081526020015f205f8373ffffffffffffffffffffffffffffffffffffffff1673ffffffffffffffffffffffffffffffffffffffff1681526020019081526020015f205490505f8111156117785760015f9054906101000a900473ffffffffffffffffffffffffffffffffffffffff1673ffffffffffffffffffffffffffffffffffffffff1663a9059cbb83836040518363ffffffff1660e01b81526004016116e592919061271d565b6020604051808303815f875af1158015611701573d5f5f3e3d5ffd5b505050506040513d601f19601f820116820180604052508101906117259190612758565b505f600a5f8981526020019081526020015f205f8473ffffffffffffffffffffffffffffffffffffffff1673ffffffffffffffffffffffffffffffffffffffff1681526020019081526020015f20819055505b5050808060010191505061160a565b5050505050565b6060600c5f3373ffffffffffffffffffffffffffffffffffffffff1673ffffffffffffffffffffffffffffffffffffffff1681526020019081526020015f205f8381526020019081526020015f20805480602002602001604051908101604052809291908181526020015f905b82821015611889578382905f5260205f2090600202016040518060400160405290815f82015f9054906101000a900473ffffffffffffffffffffffffffffffffffffffff1673ffffffffffffffffffffffffffffffffffffffff1673ffffffffffffffffffffffffffffffffffffffff168152602001600182015481525050815260200190600101906117fb565b505050509050919050565b60035481565b5f60065f8373ffffffffffffffffffffffffffffffffffffffff1673ffffffffffffffffffffffffffffffffffffffff1681526020019081526020015f205f9054906101000a900460ff169050919050565b5f60065f3373ffffffffffffffffffffffffffffffffffffffff1673ffffffffffffffffffffffffffffffffffffffff1681526020019081526020015f205f9054906101000a900460ff16611976576040517f08c379a000000000000000000000000000000000000000000000000000000000815260040161196d906129c9565b60405180910390fd5b5f85116119b8576040517f08c379a00000000000000000000000000000000000000000000000000000000081526004016119af90612b96565b60405180910390fd5b5f60045f8154809291906119cb90612bb4565b9190505590505f60055f8381526020019081526020015f209050888160070160016101000a81548160ff02191690836005811115611a0c57611a0b611f37565b5b021790555087816007015f6101000a81548160ff02191690836002811115611a3757611a36611f37565b5b021790555084816008018190555085816009018190555083816004015f6101000a81548173ffffffffffffffffffffffffffffffffffffffff021916908373ffffffffffffffffffffffffffffffffffffffff16021790555033816003015f6101000a81548173ffffffffffffffffffffffffffffffffffffffff021916908373ffffffffffffffffffffffffffffffffffffffff1602179055505f815f015f6101000a81548160ff02191690836002811115611af757611af6611f37565b5b0217905550428160010181905550603c87611b129190612bfb565b42611b1d9190612526565b81600201819055505f6005811115611b3857611b37611f37565b5b896005811115611b4b57611b4a611f37565b5b1480611b7b575060016005811115611b6657611b65611f37565b5b896005811115611b7957611b78611f37565b5b145b15611beb57600280811115611b9357611b92611f37565b5b886002811115611ba657611ba5611f37565b5b14611be6576040517f08c379a0000000000000000000000000000000000000000000000000000000008152600401611bdd90612c86565b60405180910390fd5b611c52565b600280811115611bfe57611bfd611f37565b5b886002811115611c1157611c10611f37565b5b03611c51576040517f08c379a0000000000000000000000000000000000000000000000000000000008152600401611c4890612cee565b60405180910390fd5b5b817f083acb1b03b4345bfe17d72c4be5372c6fbcbd6cad468f8cf85467d20c8f228d8a604051611c829190612d0c565b60405180910390a281925050509695505050505050565b60045481565b5f5f60055f8481526020019081526020015f2090505f81600601548260050154611cc99190612526565b9050600280811115611cde57611cdd611f37565b5b826007015f9054906101000a900460ff166002811115611d0157611d00611f37565b5b03611d1a57816006015482600501541192505050611dfe565b5f6002811115611d2d57611d2c611f37565b5b826007015f9054906101000a900460ff166002811115611d5057611d4f611f37565b5b03611d82575f8103611d66575f92505050611dfe565b8060028360050154611d789190612bfb565b1192505050611dfe565b60016002811115611d9657611d95611f37565b5b826007015f9054906101000a900460ff166002811115611db957611db8611f37565b5b03611df8575f8103611dcf575f92505050611dfe565b600281611ddc9190612bfb565b60038360050154611ded9190612bfb565b101592505050611dfe565b5f925050505b919050565b5f5ffd5b5f73ffffffffffffffffffffffffffffffffffffffff82169050919050565b5f611e3082611e07565b9050919050565b611e4081611e26565b8114611e4a575f5ffd5b50565b5f81359050611e5b81611e37565b92915050565b5f819050919050565b611e7381611e61565b8114611e7d575f5ffd5b50565b5f81359050611e8e81611e6a565b92915050565b5f5f5f60608486031215611eab57611eaa611e03565b5b5f611eb886828701611e4d565b9350506020611ec986828701611e80565b9250506040611eda86828701611e80565b9150509250925092565b611eed81611e61565b82525050565b5f602082019050611f065f830184611ee4565b92915050565b5f60208284031215611f2157611f20611e03565b5b5f611f2e84828501611e80565b91505092915050565b7f4e487b71000000000000000000000000000000000000000000000000000000005f52602160045260245ffd5b60038110611f7557611f74611f37565b5b50565b5f819050611f8582611f64565b919050565b5f611f9482611f78565b9050919050565b611fa481611f8a565b82525050565b60038110611fbb57611fba611f37565b5b50565b5f819050611fcb82611faa565b919050565b5f611fda82611fbe565b9050919050565b611fea81611fd0565b82525050565b6006811061200157612000611f37565b5b50565b5f81905061201182611ff0565b919050565b5f61202082612004565b9050919050565b61203081612016565b82525050565b61203f81611e26565b82525050565b5f60e0820190506120585f83018a611f9b565b6120656020830189611ee4565b6120726040830188611ee4565b61207f6060830187611fe1565b61208c6080830186612027565b61209960a0830185612036565b6120a660c0830184612036565b98975050505050505050565b5f819050919050565b5f6120d56120d06120cb84611e07565b6120b2565b611e07565b9050919050565b5f6120e6826120bb565b9050919050565b5f6120f7826120dc565b9050919050565b612107816120ed565b82525050565b5f6020820190506121205f8301846120fe565b92915050565b5f612130826120dc565b9050919050565b61214081612126565b82525050565b5f6020820190506121595f830184612137565b92915050565b5f8115159050919050565b6121738161215f565b811461217d575f5ffd5b50565b5f8135905061218e8161216a565b92915050565b5f5f5f606084860312156121ab576121aa611e03565b5b5f6121b886828701611e80565b93505060206121c986828701611e80565b92505060406121da86828701612180565b9150509250925092565b5f81519050919050565b5f82825260208201905092915050565b5f819050602082019050919050565b61221681611e26565b82525050565b61222581611e61565b82525050565b604082015f82015161223f5f85018261220d565b506020820151612252602085018261221c565b50505050565b5f612263838361222b565b60408301905092915050565b5f602082019050919050565b5f612285826121e4565b61228f81856121ee565b935061229a836121fe565b805f5b838110156122ca5781516122b18882612258565b97506122bc8361226f565b92505060018101905061229d565b5085935050505092915050565b5f6020820190508181035f8301526122ef818461227b565b905092915050565b5f6020828403121561230c5761230b611e03565b5b5f61231984828501611e4d565b91505092915050565b61232b8161215f565b82525050565b5f6020820190506123445f830184612322565b92915050565b60068110612356575f5ffd5b50565b5f813590506123678161234a565b92915050565b60038110612379575f5ffd5b50565b5f8135905061238a8161236d565b92915050565b5f5f5f5f5f5f60c087890312156123aa576123a9611e03565b5b5f6123b789828a01612359565b96505060206123c889828a0161237c565b95505060406123d989828a01611e80565b94505060606123ea89828a01611e80565b93505060806123fb89828a01611e80565b92505060a061240c89828a01611e4d565b9150509295509295509295565b5f82825260208201905092915050565b7f63616e206e6f742064656c656761746520746f2073656c6600000000000000005f82015250565b5f61245d601883612419565b915061246882612429565b602082019050919050565b5f6020820190508181035f83015261248a81612451565b9050919050565b7f776569676874206d757374206265206d6f7265207468616e20300000000000005f82015250565b5f6124c5601a83612419565b91506124d082612491565b602082019050919050565b5f6020820190508181035f8301526124f2816124b9565b9050919050565b7f4e487b71000000000000000000000000000000000000000000000000000000005f52601160045260245ffd5b5f61253082611e61565b915061253b83611e61565b9250828201905080821115612553576125526124f9565b5b92915050565b7f73656e64204554480000000000000000000000000000000000000000000000005f82015250565b5f61258d600883612419565b915061259882612559565b602082019050919050565b5f6020820190508181035f8301526125ba81612581565b9050919050565b7f4e487b71000000000000000000000000000000000000000000000000000000005f52601260045260245ffd5b5f6125f882611e61565b915061260383611e61565b925082612613576126126125c1565b5b828204905092915050565b5f8151905061262c81611e37565b92915050565b5f6020828403121561264757612646611e03565b5b5f6126548482850161261e565b91505092915050565b5f6020820190506126705f830184612036565b92915050565b5f8151905061268481611e6a565b92915050565b5f6020828403121561269f5761269e611e03565b5b5f6126ac84828501612676565b91505092915050565b7f6e6f7420656e6f7567682072746b0000000000000000000000000000000000005f82015250565b5f6126e9600e83612419565b91506126f4826126b5565b602082019050919050565b5f6020820190508181035f830152612716816126dd565b9050919050565b5f6040820190506127305f830185612036565b61273d6020830184611ee4565b9392505050565b5f815190506127528161216a565b92915050565b5f6020828403121561276d5761276c611e03565b5b5f61277a84828501612744565b91505092915050565b7f64000000000000000000000000000000000000000000000000000000000000005f82015250565b5f6127b7600183612419565b91506127c282612783565b602082019050919050565b5f6020820190508181035f8301526127e4816127ab565b9050919050565b7f766f74696e672066696e697368656400000000000000000000000000000000005f82015250565b5f61281f600f83612419565b915061282a826127eb565b602082019050919050565b5f6020820190508181035f83015261284c81612813565b9050919050565b7f616c726561647920766f746564000000000000000000000000000000000000005f82015250565b5f612887600d83612419565b915061289282612853565b602082019050919050565b5f6020820190508181035f8301526128b48161287b565b9050919050565b7f616d6f756e74206d757374206265206e6f7265207468616e20300000000000005f82015250565b5f6128ef601a83612419565b91506128fa826128bb565b602082019050919050565b5f6020820190508181035f83015261291c816128e3565b9050919050565b5f6060820190506129365f830186612036565b6129436020830185612036565b6129506040830184611ee4565b949350505050565b5f60408201905061296b5f830185612322565b6129786020830184611ee4565b9392505050565b7f6e6f7420612044414f206d656d626572000000000000000000000000000000005f82015250565b5f6129b3601083612419565b91506129be8261297f565b602082019050919050565b5f6020820190508181035f8301526129e0816129a7565b9050919050565b7f70726f706f73616c20616c72656164792066696e6973686564000000000000005f82015250565b5f612a1b601983612419565b9150612a26826129e7565b602082019050919050565b5f6020820190508181035f830152612a4881612a0f565b9050919050565b7f6e6f7420612070726f706f7365720000000000000000000000000000000000005f82015250565b5f612a83600e83612419565b9150612a8e82612a4f565b602082019050919050565b5f6020820190508181035f830152612ab081612a77565b9050919050565b7f616c72656164792064656c6574656400000000000000000000000000000000005f82015250565b5f612aeb600f83612419565b9150612af682612ab7565b602082019050919050565b5f6020820190508181035f830152612b1881612adf565b9050919050565b7f4e487b71000000000000000000000000000000000000000000000000000000005f52603260045260245ffd5b7f6475726174696f6e206d757374206265206d6f7265207468616e2030000000005f82015250565b5f612b80601c83612419565b9150612b8b82612b4c565b602082019050919050565b5f6020820190508181035f830152612bad81612b74565b9050919050565b5f612bbe82611e61565b91507fffffffffffffffffffffffffffffffffffffffffffffffffffffffffffffffff8203612bf057612bef6124f9565b5b600182019050919050565b5f612c0582611e61565b9150612c1083611e61565b9250828202612c1e81611e61565b91508282048414831517612c3557612c346124f9565b5b5092915050565b7f4120616e6420422074797065206d7573742062652057656967687465640000005f82015250565b5f612c70601d83612419565b9150612c7b82612c3c565b602082019050919050565b5f6020820190508181035f830152612c9d81612c64565b9050919050565b7f63616e206e6f74206265205765696768656400000000000000000000000000005f82015250565b5f612cd8601283612419565b9150612ce382612ca4565b602082019050919050565b5f6020820190508181035f830152612d0581612ccc565b9050919050565b5f602082019050612d1f5f830184612027565b9291505056fea264697066735822122069884bd3af6b48e809f6473864cbb135f84761a61efee73fe8679de1feee59d164736f6c634300081e0033",
			"opcodes": "PUSH1 0x80 PUSH1 0x40 MSTORE PUSH1 0x3 PUSH1 0x2 SSTORE PUSH1 0x6 PUSH1 0x3 SSTORE CALLVALUE DUP1 ISZERO PUSH2 0x19 JUMPI PUSH0 PUSH0 REVERT JUMPDEST POP PUSH1 0x40 MLOAD PUSH2 0x3109 CODESIZE SUB DUP1 PUSH2 0x3109 DUP4 CODECOPY DUP2 DUP2 ADD PUSH1 0x40 MSTORE DUP2 ADD SWAP1 PUSH2 0x3B SWAP2 SWAP1 PUSH2 0x308 JUMP JUMPDEST DUP2 PUSH1 0x1 PUSH0 PUSH2 0x100 EXP DUP2 SLOAD DUP2 PUSH20 0xFFFFFFFFFFFFFFFFFFFFFFFFFFFFFFFFFFFFFFFF MUL NOT AND SWAP1 DUP4 PUSH20 0xFFFFFFFFFFFFFFFFFFFFFFFFFFFFFFFFFFFFFFFF AND MUL OR SWAP1 SSTORE POP DUP3 PUSH0 PUSH0 PUSH2 0x100 EXP DUP2 SLOAD DUP2 PUSH20 0xFFFFFFFFFFFFFFFFFFFFFFFFFFFFFFFFFFFFFFFF MUL NOT AND SWAP1 DUP4 PUSH20 0xFFFFFFFFFFFFFFFFFFFFFFFFFFFFFFFFFFFFFFFF AND MUL OR SWAP1 SSTORE POP PUSH0 PUSH0 SWAP1 POP JUMPDEST DUP2 MLOAD DUP2 LT ISZERO PUSH2 0x144 JUMPI PUSH1 0x1 PUSH1 0x6 PUSH0 DUP5 DUP5 DUP2 MLOAD DUP2 LT PUSH2 0xE0 JUMPI PUSH2 0xDF PUSH2 0x374 JUMP JUMPDEST JUMPDEST PUSH1 0x20 MUL PUSH1 0x20 ADD ADD MLOAD PUSH20 0xFFFFFFFFFFFFFFFFFFFFFFFFFFFFFFFFFFFFFFFF AND PUSH20 0xFFFFFFFFFFFFFFFFFFFFFFFFFFFFFFFFFFFFFFFF AND DUP2 MSTORE PUSH1 0x20 ADD SWAP1 DUP2 MSTORE PUSH1 0x20 ADD PUSH0 KECCAK256 PUSH0 PUSH2 0x100 EXP DUP2 SLOAD DUP2 PUSH1 0xFF MUL NOT AND SWAP1 DUP4 ISZERO ISZERO MUL OR SWAP1 SSTORE POP DUP1 DUP1 PUSH1 0x1 ADD SWAP2 POP POP PUSH2 0xBF JUMP JUMPDEST POP POP POP POP PUSH2 0x3A1 JUMP JUMPDEST PUSH0 PUSH1 0x40 MLOAD SWAP1 POP SWAP1 JUMP JUMPDEST PUSH0 PUSH0 REVERT JUMPDEST PUSH0 PUSH0 REVERT JUMPDEST PUSH0 PUSH20 0xFFFFFFFFFFFFFFFFFFFFFFFFFFFFFFFFFFFFFFFF DUP3 AND SWAP1 POP SWAP2 SWAP1 POP JUMP JUMPDEST PUSH0 PUSH2 0x187 DUP3 PUSH2 0x15E JUMP JUMPDEST SWAP1 POP SWAP2 SWAP1 POP JUMP JUMPDEST PUSH2 0x197 DUP2 PUSH2 0x17D JUMP JUMPDEST DUP2 EQ PUSH2 0x1A1 JUMPI PUSH0 PUSH0 REVERT JUMPDEST POP JUMP JUMPDEST PUSH0 DUP2 MLOAD SWAP1 POP PUSH2 0x1B2 DUP2 PUSH2 0x18E JUMP JUMPDEST SWAP3 SWAP2 POP POP JUMP JUMPDEST PUSH0 PUSH0 REVERT JUMPDEST PUSH0 PUSH1 0x1F NOT PUSH1 0x1F DUP4 ADD AND SWAP1 POP SWAP2 SWAP1 POP JUMP JUMPDEST PUSH32 0x4E487B7100000000000000000000000000000000000000000000000000000000 PUSH0 MSTORE PUSH1 0x41 PUSH1 0x4 MSTORE PUSH1 0x24 PUSH0 REVERT JUMPDEST PUSH2 0x202 DUP3 PUSH2 0x1BC JUMP JUMPDEST DUP2 ADD DUP2 DUP2 LT PUSH8 0xFFFFFFFFFFFFFFFF DUP3 GT OR ISZERO PUSH2 0x221 JUMPI PUSH2 0x220 PUSH2 0x1CC JUMP JUMPDEST JUMPDEST DUP1 PUSH1 0x40 MSTORE POP POP POP JUMP JUMPDEST PUSH0 PUSH2 0x233 PUSH2 0x14D JUMP JUMPDEST SWAP1 POP PUSH2 0x23F DUP3 DUP3 PUSH2 0x1F9 JUMP JUMPDEST SWAP2 SWAP1 POP JUMP JUMPDEST PUSH0 PUSH8 0xFFFFFFFFFFFFFFFF DUP3 GT ISZERO PUSH2 0x25E JUMPI PUSH2 0x25D PUSH2 0x1CC JUMP JUMPDEST JUMPDEST PUSH1 0x20 DUP3 MUL SWAP1 POP PUSH1 0x20 DUP2 ADD SWAP1 POP SWAP2 SWAP1 POP JUMP JUMPDEST PUSH0 PUSH0 REVERT JUMPDEST PUSH0 PUSH2 0x285 PUSH2 0x280 DUP5 PUSH2 0x244 JUMP JUMPDEST PUSH2 0x22A JUMP JUMPDEST SWAP1 POP DUP1 DUP4 DUP3 MSTORE PUSH1 0x20 DUP3 ADD SWAP1 POP PUSH1 0x20 DUP5 MUL DUP4 ADD DUP6 DUP2 GT ISZERO PUSH2 0x2A8 JUMPI PUSH2 0x2A7 PUSH2 0x26F JUMP JUMPDEST JUMPDEST DUP4 JUMPDEST DUP2 DUP2 LT ISZERO PUSH2 0x2D1 JUMPI DUP1 PUSH2 0x2BD DUP9 DUP3 PUSH2 0x1A4 JUMP JUMPDEST DUP5 MSTORE PUSH1 0x20 DUP5 ADD SWAP4 POP POP PUSH1 0x20 DUP2 ADD SWAP1 POP PUSH2 0x2AA JUMP JUMPDEST POP POP POP SWAP4 SWAP3 POP POP POP JUMP JUMPDEST PUSH0 DUP3 PUSH1 0x1F DUP4 ADD SLT PUSH2 0x2EF JUMPI PUSH2 0x2EE PUSH2 0x1B8 JUMP JUMPDEST JUMPDEST DUP2 MLOAD PUSH2 0x2FF DUP5 DUP3 PUSH1 0x20 DUP7 ADD PUSH2 0x273 JUMP JUMPDEST SWAP2 POP POP SWAP3 SWAP2 POP POP JUMP JUMPDEST PUSH0 PUSH0 PUSH0 PUSH1 0x60 DUP5 DUP7 SUB SLT ISZERO PUSH2 0x31F JUMPI PUSH2 0x31E PUSH2 0x156 JUMP JUMPDEST JUMPDEST PUSH0 PUSH2 0x32C DUP7 DUP3 DUP8 ADD PUSH2 0x1A4 JUMP JUMPDEST SWAP4 POP POP PUSH1 0x20 PUSH2 0x33D DUP7 DUP3 DUP8 ADD PUSH2 0x1A4 JUMP JUMPDEST SWAP3 POP POP PUSH1 0x40 DUP5 ADD MLOAD PUSH8 0xFFFFFFFFFFFFFFFF DUP2 GT ISZERO PUSH2 0x35E JUMPI PUSH2 0x35D PUSH2 0x15A JUMP JUMPDEST JUMPDEST PUSH2 0x36A DUP7 DUP3 DUP8 ADD PUSH2 0x2DB JUMP JUMPDEST SWAP2 POP POP SWAP3 POP SWAP3 POP SWAP3 JUMP JUMPDEST PUSH32 0x4E487B7100000000000000000000000000000000000000000000000000000000 PUSH0 MSTORE PUSH1 0x32 PUSH1 0x4 MSTORE PUSH1 0x24 PUSH0 REVERT JUMPDEST PUSH2 0x2D5B DUP1 PUSH2 0x3AE PUSH0 CODECOPY PUSH0 RETURN INVALID PUSH1 0x80 PUSH1 0x40 MSTORE PUSH1 0x4 CALLDATASIZE LT PUSH2 0xC1 JUMPI PUSH0 CALLDATALOAD PUSH1 0xE0 SHR DUP1 PUSH4 0x6A18FF7A GT PUSH2 0x7E JUMPI DUP1 PUSH4 0xA8139957 GT PUSH2 0x58 JUMPI DUP1 PUSH4 0xA8139957 EQ PUSH2 0x243 JUMPI DUP1 PUSH4 0xB1E44D8F EQ PUSH2 0x26D JUMPI DUP1 PUSH4 0xC7DDE86D EQ PUSH2 0x2A9 JUMPI DUP1 PUSH4 0xDA35C664 EQ PUSH2 0x2E5 JUMPI PUSH2 0xC1 JUMP JUMPDEST DUP1 PUSH4 0x6A18FF7A EQ PUSH2 0x1B7 JUMPI DUP1 PUSH4 0x8259D553 EQ PUSH2 0x1DF JUMPI DUP1 PUSH4 0x97E6A960 EQ PUSH2 0x207 JUMPI PUSH2 0xC1 JUMP JUMPDEST DUP1 PUSH4 0x185921E EQ PUSH2 0xC5 JUMPI DUP1 PUSH4 0x2845A2D EQ PUSH2 0xED JUMPI DUP1 PUSH4 0x1B751191 EQ PUSH2 0xF7 JUMPI DUP1 PUSH4 0x2C72FDFC EQ PUSH2 0x121 JUMPI DUP1 PUSH4 0x4BF92A9F EQ PUSH2 0x163 JUMPI DUP1 PUSH4 0x59929EE8 EQ PUSH2 0x18D JUMPI JUMPDEST PUSH0 PUSH0 REVERT JUMPDEST CALLVALUE DUP1 ISZERO PUSH2 0xD0 JUMPI PUSH0 PUSH0 REVERT JUMPDEST POP PUSH2 0xEB PUSH1 0x4 DUP1 CALLDATASIZE SUB DUP2 ADD SWAP1 PUSH2 0xE6 SWAP2 SWAP1 PUSH2 0x1E94 JUMP JUMPDEST PUSH2 0x30F JUMP JUMPDEST STOP JUMPDEST PUSH2 0xF5 PUSH2 0x579 JUMP JUMPDEST STOP JUMPDEST CALLVALUE DUP1 ISZERO PUSH2 0x102 JUMPI PUSH0 PUSH0 REVERT JUMPDEST POP PUSH2 0x10B PUSH2 0x822 JUMP JUMPDEST PUSH1 0x40 MLOAD PUSH2 0x118 SWAP2 SWAP1 PUSH2 0x1EF3 JUMP JUMPDEST PUSH1 0x40 MLOAD DUP1 SWAP2 SUB SWAP1 RETURN JUMPDEST CALLVALUE DUP1 ISZERO PUSH2 0x12C JUMPI PUSH0 PUSH0 REVERT JUMPDEST POP PUSH2 0x147 PUSH1 0x4 DUP1 CALLDATASIZE SUB DUP2 ADD SWAP1 PUSH2 0x142 SWAP2 SWAP1 PUSH2 0x1F0C JUMP JUMPDEST PUSH2 0x828 JUMP JUMPDEST PUSH1 0x40 MLOAD PUSH2 0x15A SWAP8 SWAP7 SWAP6 SWAP5 SWAP4 SWAP3 SWAP2 SWAP1 PUSH2 0x2045 JUMP JUMPDEST PUSH1 0x40 MLOAD DUP1 SWAP2 SUB SWAP1 RETURN JUMPDEST CALLVALUE DUP1 ISZERO PUSH2 0x16E JUMPI PUSH0 PUSH0 REVERT JUMPDEST POP PUSH2 0x177 PUSH2 0x8E2 JUMP JUMPDEST PUSH1 0x40 MLOAD PUSH2 0x184 SWAP2 SWAP1 PUSH2 0x210D JUMP JUMPDEST PUSH1 0x40 MLOAD DUP1 SWAP2 SUB SWAP1 RETURN JUMPDEST CALLVALUE DUP1 ISZERO PUSH2 0x198 JUMPI PUSH0 PUSH0 REVERT JUMPDEST POP PUSH2 0x1A1 PUSH2 0x906 JUMP JUMPDEST PUSH1 0x40 MLOAD PUSH2 0x1AE SWAP2 SWAP1 PUSH2 0x2146 JUMP JUMPDEST PUSH1 0x40 MLOAD DUP1 SWAP2 SUB SWAP1 RETURN JUMPDEST CALLVALUE DUP1 ISZERO PUSH2 0x1C2 JUMPI PUSH0 PUSH0 REVERT JUMPDEST POP PUSH2 0x1DD PUSH1 0x4 DUP1 CALLDATASIZE SUB DUP2 ADD SWAP1 PUSH2 0x1D8 SWAP2 SWAP1 PUSH2 0x2194 JUMP JUMPDEST PUSH2 0x92B JUMP JUMPDEST STOP JUMPDEST CALLVALUE DUP1 ISZERO PUSH2 0x1EA JUMPI PUSH0 PUSH0 REVERT JUMPDEST POP PUSH2 0x205 PUSH1 0x4 DUP1 CALLDATASIZE SUB DUP2 ADD SWAP1 PUSH2 0x200 SWAP2 SWAP1 PUSH2 0x1F0C JUMP JUMPDEST PUSH2 0x1148 JUMP JUMPDEST STOP JUMPDEST CALLVALUE DUP1 ISZERO PUSH2 0x212 JUMPI PUSH0 PUSH0 REVERT JUMPDEST POP PUSH2 0x22D PUSH1 0x4 DUP1 CALLDATASIZE SUB DUP2 ADD SWAP1 PUSH2 0x228 SWAP2 SWAP1 PUSH2 0x1F0C JUMP JUMPDEST PUSH2 0x178E JUMP JUMPDEST PUSH1 0x40 MLOAD PUSH2 0x23A SWAP2 SWAP1 PUSH2 0x22D7 JUMP JUMPDEST PUSH1 0x40 MLOAD DUP1 SWAP2 SUB SWAP1 RETURN JUMPDEST CALLVALUE DUP1 ISZERO PUSH2 0x24E JUMPI PUSH0 PUSH0 REVERT JUMPDEST POP PUSH2 0x257 PUSH2 0x1894 JUMP JUMPDEST PUSH1 0x40 MLOAD PUSH2 0x264 SWAP2 SWAP1 PUSH2 0x1EF3 JUMP JUMPDEST PUSH1 0x40 MLOAD DUP1 SWAP2 SUB SWAP1 RETURN JUMPDEST CALLVALUE DUP1 ISZERO PUSH2 0x278 JUMPI PUSH0 PUSH0 REVERT JUMPDEST POP PUSH2 0x293 PUSH1 0x4 DUP1 CALLDATASIZE SUB DUP2 ADD SWAP1 PUSH2 0x28E SWAP2 SWAP1 PUSH2 0x22F7 JUMP JUMPDEST PUSH2 0x189A JUMP JUMPDEST PUSH1 0x40 MLOAD PUSH2 0x2A0 SWAP2 SWAP1 PUSH2 0x2331 JUMP JUMPDEST PUSH1 0x40 MLOAD DUP1 SWAP2 SUB SWAP1 RETURN JUMPDEST CALLVALUE DUP1 ISZERO PUSH2 0x2B4 JUMPI PUSH0 PUSH0 REVERT JUMPDEST POP PUSH2 0x2CF PUSH1 0x4 DUP1 CALLDATASIZE SUB DUP2 ADD SWAP1 PUSH2 0x2CA SWAP2 SWAP1 PUSH2 0x2390 JUMP JUMPDEST PUSH2 0x18EC JUMP JUMPDEST PUSH1 0x40 MLOAD PUSH2 0x2DC SWAP2 SWAP1 PUSH2 0x1EF3 JUMP JUMPDEST PUSH1 0x40 MLOAD DUP1 SWAP2 SUB SWAP1 RETURN JUMPDEST CALLVALUE DUP1 ISZERO PUSH2 0x2F0 JUMPI PUSH0 PUSH0 REVERT JUMPDEST POP PUSH2 0x2F9 PUSH2 0x1C99 JUMP JUMPDEST PUSH1 0x40 MLOAD PUSH2 0x306 SWAP2 SWAP1 PUSH2 0x1EF3 JUMP JUMPDEST PUSH1 0x40 MLOAD DUP1 SWAP2 SUB SWAP1 RETURN JUMPDEST CALLER PUSH20 0xFFFFFFFFFFFFFFFFFFFFFFFFFFFFFFFFFFFFFFFF AND DUP4 PUSH20 0xFFFFFFFFFFFFFFFFFFFFFFFFFFFFFFFFFFFFFFFF AND SUB PUSH2 0x37D JUMPI PUSH1 0x40 MLOAD PUSH32 0x8C379A000000000000000000000000000000000000000000000000000000000 DUP2 MSTORE PUSH1 0x4 ADD PUSH2 0x374 SWAP1 PUSH2 0x2473 JUMP JUMPDEST PUSH1 0x40 MLOAD DUP1 SWAP2 SUB SWAP1 REVERT JUMPDEST PUSH0 DUP2 SUB PUSH2 0x3BF JUMPI PUSH1 0x40 MLOAD PUSH32 0x8C379A000000000000000000000000000000000000000000000000000000000 DUP2 MSTORE PUSH1 0x4 ADD PUSH2 0x3B6 SWAP1 PUSH2 0x24DB JUMP JUMPDEST PUSH1 0x40 MLOAD DUP1 SWAP2 SUB SWAP1 REVERT JUMPDEST DUP1 PUSH1 0xA PUSH0 DUP5 DUP2 MSTORE PUSH1 0x20 ADD SWAP1 DUP2 MSTORE PUSH1 0x20 ADD PUSH0 KECCAK256 PUSH0 DUP6 PUSH20 0xFFFFFFFFFFFFFFFFFFFFFFFFFFFFFFFFFFFFFFFF AND PUSH20 0xFFFFFFFFFFFFFFFFFFFFFFFFFFFFFFFFFFFFFFFF AND DUP2 MSTORE PUSH1 0x20 ADD SWAP1 DUP2 MSTORE PUSH1 0x20 ADD PUSH0 KECCAK256 PUSH0 DUP3 DUP3 SLOAD PUSH2 0x41A SWAP2 SWAP1 PUSH2 0x2526 JUMP JUMPDEST SWAP3 POP POP DUP2 SWAP1 SSTORE POP PUSH1 0xC PUSH0 CALLER PUSH20 0xFFFFFFFFFFFFFFFFFFFFFFFFFFFFFFFFFFFFFFFF AND PUSH20 0xFFFFFFFFFFFFFFFFFFFFFFFFFFFFFFFFFFFFFFFF AND DUP2 MSTORE PUSH1 0x20 ADD SWAP1 DUP2 MSTORE PUSH1 0x20 ADD PUSH0 KECCAK256 PUSH0 DUP4 DUP2 MSTORE PUSH1 0x20 ADD SWAP1 DUP2 MSTORE PUSH1 0x20 ADD PUSH0 KECCAK256 PUSH1 0x40 MLOAD DUP1 PUSH1 0x40 ADD PUSH1 0x40 MSTORE DUP1 DUP6 PUSH20 0xFFFFFFFFFFFFFFFFFFFFFFFFFFFFFFFFFFFFFFFF AND DUP2 MSTORE PUSH1 0x20 ADD DUP4 DUP2 MSTORE POP SWAP1 DUP1 PUSH1 0x1 DUP2 SLOAD ADD DUP1 DUP3 SSTORE DUP1 SWAP2 POP POP PUSH1 0x1 SWAP1 SUB SWAP1 PUSH0 MSTORE PUSH1 0x20 PUSH0 KECCAK256 SWAP1 PUSH1 0x2 MUL ADD PUSH0 SWAP1 SWAP2 SWAP1 SWAP2 SWAP1 SWAP2 POP PUSH0 DUP3 ADD MLOAD DUP2 PUSH0 ADD PUSH0 PUSH2 0x100 EXP DUP2 SLOAD DUP2 PUSH20 0xFFFFFFFFFFFFFFFFFFFFFFFFFFFFFFFFFFFFFFFF MUL NOT AND SWAP1 DUP4 PUSH20 0xFFFFFFFFFFFFFFFFFFFFFFFFFFFFFFFFFFFFFFFF AND MUL OR SWAP1 SSTORE POP PUSH1 0x20 DUP3 ADD MLOAD DUP2 PUSH1 0x1 ADD SSTORE POP POP DUP2 DUP4 PUSH20 0xFFFFFFFFFFFFFFFFFFFFFFFFFFFFFFFFFFFFFFFF AND CALLER PUSH20 0xFFFFFFFFFFFFFFFFFFFFFFFFFFFFFFFFFFFFFFFF AND PUSH32 0x24D7BDA8602B916D64417F0DBFE2E2E88EC9B1157BD9F596DFDB91BA26624E04 DUP5 PUSH1 0x40 MLOAD PUSH2 0x56C SWAP2 SWAP1 PUSH2 0x1EF3 JUMP JUMPDEST PUSH1 0x40 MLOAD DUP1 SWAP2 SUB SWAP1 LOG4 POP POP POP JUMP JUMPDEST PUSH0 CALLVALUE GT PUSH2 0x5BB JUMPI PUSH1 0x40 MLOAD PUSH32 0x8C379A000000000000000000000000000000000000000000000000000000000 DUP2 MSTORE PUSH1 0x4 ADD PUSH2 0x5B2 SWAP1 PUSH2 0x25A3 JUMP JUMPDEST PUSH1 0x40 MLOAD DUP1 SWAP2 SUB SWAP1 REVERT JUMPDEST PUSH0 PUSH8 0xDE0B6B3A7640000 CALLVALUE PUSH2 0x5D0 SWAP2 SWAP1 PUSH2 0x25EE JUMP JUMPDEST SWAP1 POP PUSH0 PUSH1 0x1 PUSH0 SWAP1 SLOAD SWAP1 PUSH2 0x100 EXP SWAP1 DIV PUSH20 0xFFFFFFFFFFFFFFFFFFFFFFFFFFFFFFFFFFFFFFFF AND PUSH20 0xFFFFFFFFFFFFFFFFFFFFFFFFFFFFFFFFFFFFFFFF AND PUSH4 0x70A08231 PUSH1 0x1 PUSH0 SWAP1 SLOAD SWAP1 PUSH2 0x100 EXP SWAP1 DIV PUSH20 0xFFFFFFFFFFFFFFFFFFFFFFFFFFFFFFFFFFFFFFFF AND PUSH20 0xFFFFFFFFFFFFFFFFFFFFFFFFFFFFFFFFFFFFFFFF AND PUSH4 0x8DA5CB5B PUSH1 0x40 MLOAD DUP2 PUSH4 0xFFFFFFFF AND PUSH1 0xE0 SHL DUP2 MSTORE PUSH1 0x4 ADD PUSH1 0x20 PUSH1 0x40 MLOAD DUP1 DUP4 SUB DUP2 DUP7 GAS STATICCALL ISZERO DUP1 ISZERO PUSH2 0x67A JUMPI RETURNDATASIZE PUSH0 PUSH0 RETURNDATACOPY RETURNDATASIZE PUSH0 REVERT JUMPDEST POP POP POP POP PUSH1 0x40 MLOAD RETURNDATASIZE PUSH1 0x1F NOT PUSH1 0x1F DUP3 ADD AND DUP3 ADD DUP1 PUSH1 0x40 MSTORE POP DUP2 ADD SWAP1 PUSH2 0x69E SWAP2 SWAP1 PUSH2 0x2632 JUMP JUMPDEST PUSH1 0x40 MLOAD DUP3 PUSH4 0xFFFFFFFF AND PUSH1 0xE0 SHL DUP2 MSTORE PUSH1 0x4 ADD PUSH2 0x6BA SWAP2 SWAP1 PUSH2 0x265D JUMP JUMPDEST PUSH1 0x20 PUSH1 0x40 MLOAD DUP1 DUP4 SUB DUP2 DUP7 GAS STATICCALL ISZERO DUP1 ISZERO PUSH2 0x6D5 JUMPI RETURNDATASIZE PUSH0 PUSH0 RETURNDATACOPY RETURNDATASIZE PUSH0 REVERT JUMPDEST POP POP POP POP PUSH1 0x40 MLOAD RETURNDATASIZE PUSH1 0x1F NOT PUSH1 0x1F DUP3 ADD AND DUP3 ADD DUP1 PUSH1 0x40 MSTORE POP DUP2 ADD SWAP1 PUSH2 0x6F9 SWAP2 SWAP1 PUSH2 0x268A JUMP JUMPDEST SWAP1 POP DUP2 DUP2 LT ISZERO PUSH2 0x73E JUMPI PUSH1 0x40 MLOAD PUSH32 0x8C379A000000000000000000000000000000000000000000000000000000000 DUP2 MSTORE PUSH1 0x4 ADD PUSH2 0x735 SWAP1 PUSH2 0x26FF JUMP JUMPDEST PUSH1 0x40 MLOAD DUP1 SWAP2 SUB SWAP1 REVERT JUMPDEST PUSH0 PUSH1 0x1 PUSH0 SWAP1 SLOAD SWAP1 PUSH2 0x100 EXP SWAP1 DIV PUSH20 0xFFFFFFFFFFFFFFFFFFFFFFFFFFFFFFFFFFFFFFFF AND PUSH20 0xFFFFFFFFFFFFFFFFFFFFFFFFFFFFFFFFFFFFFFFF AND PUSH4 0xA9059CBB CALLER DUP6 PUSH1 0x40 MLOAD DUP4 PUSH4 0xFFFFFFFF AND PUSH1 0xE0 SHL DUP2 MSTORE PUSH1 0x4 ADD PUSH2 0x79B SWAP3 SWAP2 SWAP1 PUSH2 0x271D JUMP JUMPDEST PUSH1 0x20 PUSH1 0x40 MLOAD DUP1 DUP4 SUB DUP2 PUSH0 DUP8 GAS CALL ISZERO DUP1 ISZERO PUSH2 0x7B7 JUMPI RETURNDATASIZE PUSH0 PUSH0 RETURNDATACOPY RETURNDATASIZE PUSH0 REVERT JUMPDEST POP POP POP POP PUSH1 0x40 MLOAD RETURNDATASIZE PUSH1 0x1F NOT PUSH1 0x1F DUP3 ADD AND DUP3 ADD DUP1 PUSH1 0x40 MSTORE POP DUP2 ADD SWAP1 PUSH2 0x7DB SWAP2 SWAP1 PUSH2 0x2758 JUMP JUMPDEST SWAP1 POP DUP1 PUSH2 0x81D JUMPI PUSH1 0x40 MLOAD PUSH32 0x8C379A000000000000000000000000000000000000000000000000000000000 DUP2 MSTORE PUSH1 0x4 ADD PUSH2 0x814 SWAP1 PUSH2 0x27CD JUMP JUMPDEST PUSH1 0x40 MLOAD DUP1 SWAP2 SUB SWAP1 REVERT JUMPDEST POP POP POP JUMP JUMPDEST PUSH1 0x2 SLOAD DUP2 JUMP JUMPDEST PUSH0 PUSH0 PUSH0 PUSH0 PUSH0 PUSH0 PUSH0 PUSH0 PUSH1 0x5 PUSH0 DUP11 DUP2 MSTORE PUSH1 0x20 ADD SWAP1 DUP2 MSTORE PUSH1 0x20 ADD PUSH0 KECCAK256 SWAP1 POP DUP1 PUSH0 ADD PUSH0 SWAP1 SLOAD SWAP1 PUSH2 0x100 EXP SWAP1 DIV PUSH1 0xFF AND DUP2 PUSH1 0x1 ADD SLOAD DUP3 PUSH1 0x2 ADD SLOAD DUP4 PUSH1 0x7 ADD PUSH0 SWAP1 SLOAD SWAP1 PUSH2 0x100 EXP SWAP1 DIV PUSH1 0xFF AND DUP5 PUSH1 0x7 ADD PUSH1 0x1 SWAP1 SLOAD SWAP1 PUSH2 0x100 EXP SWAP1 DIV PUSH1 0xFF AND DUP6 PUSH1 0x3 ADD PUSH0 SWAP1 SLOAD SWAP1 PUSH2 0x100 EXP SWAP1 DIV PUSH20 0xFFFFFFFFFFFFFFFFFFFFFFFFFFFFFFFFFFFFFFFF AND DUP7 PUSH1 0x4 ADD PUSH0 SWAP1 SLOAD SWAP1 PUSH2 0x100 EXP SWAP1 DIV PUSH20 0xFFFFFFFFFFFFFFFFFFFFFFFFFFFFFFFFFFFFFFFF AND SWAP8 POP SWAP8 POP SWAP8 POP SWAP8 POP SWAP8 POP SWAP8 POP SWAP8 POP POP SWAP2 SWAP4 SWAP6 SWAP8 SWAP1 SWAP3 SWAP5 SWAP7 POP JUMP JUMPDEST PUSH0 PUSH0 SWAP1 SLOAD SWAP1 PUSH2 0x100 EXP SWAP1 DIV PUSH20 0xFFFFFFFFFFFFFFFFFFFFFFFFFFFFFFFFFFFFFFFF AND DUP2 JUMP JUMPDEST PUSH1 0x1 PUSH0 SWAP1 SLOAD SWAP1 PUSH2 0x100 EXP SWAP1 DIV PUSH20 0xFFFFFFFFFFFFFFFFFFFFFFFFFFFFFFFFFFFFFFFF AND DUP2 JUMP JUMPDEST PUSH0 PUSH1 0x5 PUSH0 DUP6 DUP2 MSTORE PUSH1 0x20 ADD SWAP1 DUP2 MSTORE PUSH1 0x20 ADD PUSH0 KECCAK256 SWAP1 POP DUP1 PUSH1 0x2 ADD SLOAD TIMESTAMP LT PUSH2 0x985 JUMPI PUSH1 0x40 MLOAD PUSH32 0x8C379A000000000000000000000000000000000000000000000000000000000 DUP2 MSTORE PUSH1 0x4 ADD PUSH2 0x97C SWAP1 PUSH2 0x2835 JUMP JUMPDEST PUSH1 0x40 MLOAD DUP1 SWAP2 SUB SWAP1 REVERT JUMPDEST DUP1 PUSH1 0xA ADD PUSH0 CALLER PUSH20 0xFFFFFFFFFFFFFFFFFFFFFFFFFFFFFFFFFFFFFFFF AND PUSH20 0xFFFFFFFFFFFFFFFFFFFFFFFFFFFFFFFFFFFFFFFF AND DUP2 MSTORE PUSH1 0x20 ADD SWAP1 DUP2 MSTORE PUSH1 0x20 ADD PUSH0 KECCAK256 PUSH0 SWAP1 SLOAD SWAP1 PUSH2 0x100 EXP SWAP1 DIV PUSH1 0xFF AND ISZERO PUSH2 0xA11 JUMPI PUSH1 0x40 MLOAD PUSH32 0x8C379A000000000000000000000000000000000000000000000000000000000 DUP2 MSTORE PUSH1 0x4 ADD PUSH2 0xA08 SWAP1 PUSH2 0x289D JUMP JUMPDEST PUSH1 0x40 MLOAD DUP1 SWAP2 SUB SWAP1 REVERT JUMPDEST PUSH0 DUP4 GT PUSH2 0xA53 JUMPI PUSH1 0x40 MLOAD PUSH32 0x8C379A000000000000000000000000000000000000000000000000000000000 DUP2 MSTORE PUSH1 0x4 ADD PUSH2 0xA4A SWAP1 PUSH2 0x2905 JUMP JUMPDEST PUSH1 0x40 MLOAD DUP1 SWAP2 SUB SWAP1 REVERT JUMPDEST PUSH0 PUSH0 SWAP1 SLOAD SWAP1 PUSH2 0x100 EXP SWAP1 DIV PUSH20 0xFFFFFFFFFFFFFFFFFFFFFFFFFFFFFFFFFFFFFFFF AND PUSH20 0xFFFFFFFFFFFFFFFFFFFFFFFFFFFFFFFFFFFFFFFF AND PUSH4 0x23B872DD CALLER ADDRESS DUP7 PUSH1 0x40 MLOAD DUP5 PUSH4 0xFFFFFFFF AND PUSH1 0xE0 SHL DUP2 MSTORE PUSH1 0x4 ADD PUSH2 0xAB0 SWAP4 SWAP3 SWAP2 SWAP1 PUSH2 0x2923 JUMP JUMPDEST PUSH1 0x20 PUSH1 0x40 MLOAD DUP1 DUP4 SUB DUP2 PUSH0 DUP8 GAS CALL ISZERO DUP1 ISZERO PUSH2 0xACC JUMPI RETURNDATASIZE PUSH0 PUSH0 RETURNDATACOPY RETURNDATASIZE PUSH0 REVERT JUMPDEST POP POP POP POP PUSH1 0x40 MLOAD RETURNDATASIZE PUSH1 0x1F NOT PUSH1 0x1F DUP3 ADD AND DUP3 ADD DUP1 PUSH1 0x40 MSTORE POP DUP2 ADD SWAP1 PUSH2 0xAF0 SWAP2 SWAP1 PUSH2 0x2758 JUMP JUMPDEST POP PUSH1 0x1 PUSH0 SWAP1 SLOAD SWAP1 PUSH2 0x100 EXP SWAP1 DIV PUSH20 0xFFFFFFFFFFFFFFFFFFFFFFFFFFFFFFFFFFFFFFFF AND PUSH20 0xFFFFFFFFFFFFFFFFFFFFFFFFFFFFFFFFFFFFFFFF AND PUSH4 0x23B872DD CALLER ADDRESS DUP7 PUSH1 0x40 MLOAD DUP5 PUSH4 0xFFFFFFFF AND PUSH1 0xE0 SHL DUP2 MSTORE PUSH1 0x4 ADD PUSH2 0xB4F SWAP4 SWAP3 SWAP2 SWAP1 PUSH2 0x2923 JUMP JUMPDEST PUSH1 0x20 PUSH1 0x40 MLOAD DUP1 DUP4 SUB DUP2 PUSH0 DUP8 GAS CALL ISZERO DUP1 ISZERO PUSH2 0xB6B JUMPI RETURNDATASIZE PUSH0 PUSH0 RETURNDATACOPY RETURNDATASIZE PUSH0 REVERT JUMPDEST POP POP POP POP PUSH1 0x40 MLOAD RETURNDATASIZE PUSH1 0x1F NOT PUSH1 0x1F DUP3 ADD AND DUP3 ADD DUP1 PUSH1 0x40 MSTORE POP DUP2 ADD SWAP1 PUSH2 0xB8F SWAP2 SWAP1 PUSH2 0x2758 JUMP JUMPDEST POP PUSH0 PUSH1 0x3 SLOAD PUSH1 0xB PUSH0 CALLER PUSH20 0xFFFFFFFFFFFFFFFFFFFFFFFFFFFFFFFFFFFFFFFF AND PUSH20 0xFFFFFFFFFFFFFFFFFFFFFFFFFFFFFFFFFFFFFFFF AND DUP2 MSTORE PUSH1 0x20 ADD SWAP1 DUP2 MSTORE PUSH1 0x20 ADD PUSH0 KECCAK256 SLOAD PUSH2 0xBDC SWAP2 SWAP1 PUSH2 0x25EE JUMP JUMPDEST PUSH1 0x2 SLOAD DUP6 PUSH2 0xBEA SWAP2 SWAP1 PUSH2 0x25EE JUMP JUMPDEST PUSH2 0xBF4 SWAP2 SWAP1 PUSH2 0x2526 JUMP JUMPDEST SWAP1 POP PUSH1 0x7 PUSH0 DUP7 DUP2 MSTORE PUSH1 0x20 ADD SWAP1 DUP2 MSTORE PUSH1 0x20 ADD PUSH0 KECCAK256 CALLER SWAP1 DUP1 PUSH1 0x1 DUP2 SLOAD ADD DUP1 DUP3 SSTORE DUP1 SWAP2 POP POP PUSH1 0x1 SWAP1 SUB SWAP1 PUSH0 MSTORE PUSH1 0x20 PUSH0 KECCAK256 ADD PUSH0 SWAP1 SWAP2 SWAP1 SWAP2 SWAP1 SWAP2 PUSH2 0x100 EXP DUP2 SLOAD DUP2 PUSH20 0xFFFFFFFFFFFFFFFFFFFFFFFFFFFFFFFFFFFFFFFF MUL NOT AND SWAP1 DUP4 PUSH20 0xFFFFFFFFFFFFFFFFFFFFFFFFFFFFFFFFFFFFFFFF AND MUL OR SWAP1 SSTORE POP DUP4 PUSH1 0x8 PUSH0 DUP8 DUP2 MSTORE PUSH1 0x20 ADD SWAP1 DUP2 MSTORE PUSH1 0x20 ADD PUSH0 KECCAK256 PUSH0 CALLER PUSH20 0xFFFFFFFFFFFFFFFFFFFFFFFFFFFFFFFFFFFFFFFF AND PUSH20 0xFFFFFFFFFFFFFFFFFFFFFFFFFFFFFFFFFFFFFFFF AND DUP2 MSTORE PUSH1 0x20 ADD SWAP1 DUP2 MSTORE PUSH1 0x20 ADD PUSH0 KECCAK256 DUP2 SWAP1 SSTORE POP DUP3 ISZERO PUSH2 0xCDB JUMPI DUP1 DUP3 PUSH1 0x5 ADD PUSH0 DUP3 DUP3 SLOAD PUSH2 0xCCF SWAP2 SWAP1 PUSH2 0x2526 JUMP JUMPDEST SWAP3 POP POP DUP2 SWAP1 SSTORE POP PUSH2 0xCF6 JUMP JUMPDEST DUP1 DUP3 PUSH1 0x6 ADD PUSH0 DUP3 DUP3 SLOAD PUSH2 0xCEE SWAP2 SWAP1 PUSH2 0x2526 JUMP JUMPDEST SWAP3 POP POP DUP2 SWAP1 SSTORE POP JUMPDEST DUP2 PUSH1 0x5 ADD SLOAD DUP3 PUSH1 0x9 ADD SLOAD GT ISZERO DUP1 ISZERO PUSH2 0xD13 JUMPI POP PUSH2 0xD12 DUP6 PUSH2 0x1C9F JUMP JUMPDEST JUMPDEST ISZERO PUSH2 0x106C JUMPI PUSH0 PUSH1 0x5 DUP2 GT ISZERO PUSH2 0xD2B JUMPI PUSH2 0xD2A PUSH2 0x1F37 JUMP JUMPDEST JUMPDEST DUP3 PUSH1 0x7 ADD PUSH1 0x1 SWAP1 SLOAD SWAP1 PUSH2 0x100 EXP SWAP1 DIV PUSH1 0xFF AND PUSH1 0x5 DUP2 GT ISZERO PUSH2 0xD4F JUMPI PUSH2 0xD4E PUSH2 0x1F37 JUMP JUMPDEST JUMPDEST EQ DUP1 PUSH2 0xD90 JUMPI POP PUSH1 0x1 PUSH1 0x5 DUP2 GT ISZERO PUSH2 0xD6A JUMPI PUSH2 0xD69 PUSH2 0x1F37 JUMP JUMPDEST JUMPDEST DUP3 PUSH1 0x7 ADD PUSH1 0x1 SWAP1 SLOAD SWAP1 PUSH2 0x100 EXP SWAP1 DIV PUSH1 0xFF AND PUSH1 0x5 DUP2 GT ISZERO PUSH2 0xD8E JUMPI PUSH2 0xD8D PUSH2 0x1F37 JUMP JUMPDEST JUMPDEST EQ JUMPDEST ISZERO PUSH2 0xE5F JUMPI PUSH0 PUSH0 SWAP1 SLOAD SWAP1 PUSH2 0x100 EXP SWAP1 DIV PUSH20 0xFFFFFFFFFFFFFFFFFFFFFFFFFFFFFFFFFFFFFFFF AND PUSH20 0xFFFFFFFFFFFFFFFFFFFFFFFFFFFFFFFFFFFFFFFF AND PUSH4 0x23B872DD ADDRESS DUP5 PUSH1 0x4 ADD PUSH0 SWAP1 SLOAD SWAP1 PUSH2 0x100 EXP SWAP1 DIV PUSH20 0xFFFFFFFFFFFFFFFFFFFFFFFFFFFFFFFFFFFFFFFF AND DUP6 PUSH1 0x9 ADD SLOAD PUSH1 0x40 MLOAD DUP5 PUSH4 0xFFFFFFFF AND PUSH1 0xE0 SHL DUP2 MSTORE PUSH1 0x4 ADD PUSH2 0xE19 SWAP4 SWAP3 SWAP2 SWAP1 PUSH2 0x2923 JUMP JUMPDEST PUSH1 0x20 PUSH1 0x40 MLOAD DUP1 DUP4 SUB DUP2 PUSH0 DUP8 GAS CALL ISZERO DUP1 ISZERO PUSH2 0xE35 JUMPI RETURNDATASIZE PUSH0 PUSH0 RETURNDATACOPY RETURNDATASIZE PUSH0 REVERT JUMPDEST POP POP POP POP PUSH1 0x40 MLOAD RETURNDATASIZE PUSH1 0x1F NOT PUSH1 0x1F DUP3 ADD AND DUP3 ADD DUP1 PUSH1 0x40 MSTORE POP DUP2 ADD SWAP1 PUSH2 0xE59 SWAP2 SWAP1 PUSH2 0x2758 JUMP JUMPDEST POP PUSH2 0x106B JUMP JUMPDEST PUSH1 0x2 PUSH1 0x5 DUP2 GT ISZERO PUSH2 0xE73 JUMPI PUSH2 0xE72 PUSH2 0x1F37 JUMP JUMPDEST JUMPDEST DUP3 PUSH1 0x7 ADD PUSH1 0x1 SWAP1 SLOAD SWAP1 PUSH2 0x100 EXP SWAP1 DIV PUSH1 0xFF AND PUSH1 0x5 DUP2 GT ISZERO PUSH2 0xE97 JUMPI PUSH2 0xE96 PUSH2 0x1F37 JUMP JUMPDEST JUMPDEST SUB PUSH2 0xF19 JUMPI PUSH1 0x1 PUSH1 0x6 PUSH0 DUP5 PUSH1 0x4 ADD PUSH0 SWAP1 SLOAD SWAP1 PUSH2 0x100 EXP SWAP1 DIV PUSH20 0xFFFFFFFFFFFFFFFFFFFFFFFFFFFFFFFFFFFFFFFF AND PUSH20 0xFFFFFFFFFFFFFFFFFFFFFFFFFFFFFFFFFFFFFFFF AND PUSH20 0xFFFFFFFFFFFFFFFFFFFFFFFFFFFFFFFFFFFFFFFF AND DUP2 MSTORE PUSH1 0x20 ADD SWAP1 DUP2 MSTORE PUSH1 0x20 ADD PUSH0 KECCAK256 PUSH0 PUSH2 0x100 EXP DUP2 SLOAD DUP2 PUSH1 0xFF MUL NOT AND SWAP1 DUP4 ISZERO ISZERO MUL OR SWAP1 SSTORE POP PUSH2 0x106A JUMP JUMPDEST PUSH1 0x3 PUSH1 0x5 DUP2 GT ISZERO PUSH2 0xF2D JUMPI PUSH2 0xF2C PUSH2 0x1F37 JUMP JUMPDEST JUMPDEST DUP3 PUSH1 0x7 ADD PUSH1 0x1 SWAP1 SLOAD SWAP1 PUSH2 0x100 EXP SWAP1 DIV PUSH1 0xFF AND PUSH1 0x5 DUP2 GT ISZERO PUSH2 0xF51 JUMPI PUSH2 0xF50 PUSH2 0x1F37 JUMP JUMPDEST JUMPDEST SUB PUSH2 0xFD2 JUMPI PUSH0 PUSH1 0x6 PUSH0 DUP5 PUSH1 0x4 ADD PUSH0 SWAP1 SLOAD SWAP1 PUSH2 0x100 EXP SWAP1 DIV PUSH20 0xFFFFFFFFFFFFFFFFFFFFFFFFFFFFFFFFFFFFFFFF AND PUSH20 0xFFFFFFFFFFFFFFFFFFFFFFFFFFFFFFFFFFFFFFFF AND PUSH20 0xFFFFFFFFFFFFFFFFFFFFFFFFFFFFFFFFFFFFFFFF AND DUP2 MSTORE PUSH1 0x20 ADD SWAP1 DUP2 MSTORE PUSH1 0x20 ADD PUSH0 KECCAK256 PUSH0 PUSH2 0x100 EXP DUP2 SLOAD DUP2 PUSH1 0xFF MUL NOT AND SWAP1 DUP4 ISZERO ISZERO MUL OR SWAP1 SSTORE POP PUSH2 0x1069 JUMP JUMPDEST PUSH1 0x4 PUSH1 0x5 DUP2 GT ISZERO PUSH2 0xFE6 JUMPI PUSH2 0xFE5 PUSH2 0x1F37 JUMP JUMPDEST JUMPDEST DUP3 PUSH1 0x7 ADD PUSH1 0x1 SWAP1 SLOAD SWAP1 PUSH2 0x100 EXP SWAP1 DIV PUSH1 0xFF AND PUSH1 0x5 DUP2 GT ISZERO PUSH2 0x100A JUMPI PUSH2 0x1009 PUSH2 0x1F37 JUMP JUMPDEST JUMPDEST SUB PUSH2 0x101F JUMPI DUP2 PUSH1 0x8 ADD SLOAD PUSH1 0x2 DUP2 SWAP1 SSTORE POP PUSH2 0x1068 JUMP JUMPDEST PUSH1 0x5 DUP1 DUP2 GT ISZERO PUSH2 0x1032 JUMPI PUSH2 0x1031 PUSH2 0x1F37 JUMP JUMPDEST JUMPDEST DUP3 PUSH1 0x7 ADD PUSH1 0x1 SWAP1 SLOAD SWAP1 PUSH2 0x100 EXP SWAP1 DIV PUSH1 0xFF AND PUSH1 0x5 DUP2 GT ISZERO PUSH2 0x1056 JUMPI PUSH2 0x1055 PUSH2 0x1F37 JUMP JUMPDEST JUMPDEST SUB PUSH2 0x1067 JUMPI DUP2 PUSH1 0x8 ADD SLOAD PUSH1 0x3 DUP2 SWAP1 SSTORE POP JUMPDEST JUMPDEST JUMPDEST JUMPDEST JUMPDEST JUMPDEST PUSH1 0x1 DUP3 PUSH1 0xA ADD PUSH0 CALLER PUSH20 0xFFFFFFFFFFFFFFFFFFFFFFFFFFFFFFFFFFFFFFFF AND PUSH20 0xFFFFFFFFFFFFFFFFFFFFFFFFFFFFFFFFFFFFFFFF AND DUP2 MSTORE PUSH1 0x20 ADD SWAP1 DUP2 MSTORE PUSH1 0x20 ADD PUSH0 KECCAK256 PUSH0 PUSH2 0x100 EXP DUP2 SLOAD DUP2 PUSH1 0xFF MUL NOT AND SWAP1 DUP4 ISZERO ISZERO MUL OR SWAP1 SSTORE POP DUP5 CALLER PUSH20 0xFFFFFFFFFFFFFFFFFFFFFFFFFFFFFFFFFFFFFFFF AND PUSH32 0xA7A13493D42EA36718B051B30836352B5E73878411496329C2793FA0E2AA0AAD DUP6 DUP5 PUSH1 0x40 MLOAD PUSH2 0x110C SWAP3 SWAP2 SWAP1 PUSH2 0x2958 JUMP JUMPDEST PUSH1 0x40 MLOAD DUP1 SWAP2 SUB SWAP1 LOG3 DUP5 PUSH32 0xBCF6A68A2F901BE4A23A41B53ACD7697893A7E34DEF4E28ACBA584DA75283B67 PUSH1 0x40 MLOAD PUSH1 0x40 MLOAD DUP1 SWAP2 SUB SWAP1 LOG2 POP POP POP POP POP JUMP JUMPDEST PUSH1 0x6 PUSH0 CALLER PUSH20 0xFFFFFFFFFFFFFFFFFFFFFFFFFFFFFFFFFFFFFFFF AND PUSH20 0xFFFFFFFFFFFFFFFFFFFFFFFFFFFFFFFFFFFFFFFF AND DUP2 MSTORE PUSH1 0x20 ADD SWAP1 DUP2 MSTORE PUSH1 0x20 ADD PUSH0 KECCAK256 PUSH0 SWAP1 SLOAD SWAP1 PUSH2 0x100 EXP SWAP1 DIV PUSH1 0xFF AND PUSH2 0x11D1 JUMPI PUSH1 0x40 MLOAD PUSH32 0x8C379A000000000000000000000000000000000000000000000000000000000 DUP2 MSTORE PUSH1 0x4 ADD PUSH2 0x11C8 SWAP1 PUSH2 0x29C9 JUMP JUMPDEST PUSH1 0x40 MLOAD DUP1 SWAP2 SUB SWAP1 REVERT JUMPDEST PUSH0 PUSH1 0x5 PUSH0 DUP4 DUP2 MSTORE PUSH1 0x20 ADD SWAP1 DUP2 MSTORE PUSH1 0x20 ADD PUSH0 KECCAK256 SWAP1 POP DUP1 PUSH1 0x2 ADD SLOAD TIMESTAMP GT ISZERO PUSH2 0x122C JUMPI PUSH1 0x40 MLOAD PUSH32 0x8C379A000000000000000000000000000000000000000000000000000000000 DUP2 MSTORE PUSH1 0x4 ADD PUSH2 0x1223 SWAP1 PUSH2 0x2A31 JUMP JUMPDEST PUSH1 0x40 MLOAD DUP1 SWAP2 SUB SWAP1 REVERT JUMPDEST DUP1 PUSH1 0x3 ADD PUSH0 SWAP1 SLOAD SWAP1 PUSH2 0x100 EXP SWAP1 DIV PUSH20 0xFFFFFFFFFFFFFFFFFFFFFFFFFFFFFFFFFFFFFFFF AND PUSH20 0xFFFFFFFFFFFFFFFFFFFFFFFFFFFFFFFFFFFFFFFF AND CALLER PUSH20 0xFFFFFFFFFFFFFFFFFFFFFFFFFFFFFFFFFFFFFFFF AND EQ PUSH2 0x12BD JUMPI PUSH1 0x40 MLOAD PUSH32 0x8C379A000000000000000000000000000000000000000000000000000000000 DUP2 MSTORE PUSH1 0x4 ADD PUSH2 0x12B4 SWAP1 PUSH2 0x2A99 JUMP JUMPDEST PUSH1 0x40 MLOAD DUP1 SWAP2 SUB SWAP1 REVERT JUMPDEST DUP1 PUSH1 0x7 ADD PUSH1 0x3 SWAP1 SLOAD SWAP1 PUSH2 0x100 EXP SWAP1 DIV PUSH1 0xFF AND ISZERO PUSH2 0x130F JUMPI PUSH1 0x40 MLOAD PUSH32 0x8C379A000000000000000000000000000000000000000000000000000000000 DUP2 MSTORE PUSH1 0x4 ADD PUSH2 0x1306 SWAP1 PUSH2 0x2B01 JUMP JUMPDEST PUSH1 0x40 MLOAD DUP1 SWAP2 SUB SWAP1 REVERT JUMPDEST PUSH1 0x1 DUP2 PUSH1 0x7 ADD PUSH1 0x3 PUSH2 0x100 EXP DUP2 SLOAD DUP2 PUSH1 0xFF MUL NOT AND SWAP1 DUP4 ISZERO ISZERO MUL OR SWAP1 SSTORE POP PUSH1 0x2 DUP2 PUSH0 ADD PUSH0 PUSH2 0x100 EXP DUP2 SLOAD DUP2 PUSH1 0xFF MUL NOT AND SWAP1 DUP4 PUSH1 0x2 DUP2 GT ISZERO PUSH2 0x1352 JUMPI PUSH2 0x1351 PUSH2 0x1F37 JUMP JUMPDEST JUMPDEST MUL OR SWAP1 SSTORE POP PUSH0 PUSH1 0x7 PUSH0 DUP5 DUP2 MSTORE PUSH1 0x20 ADD SWAP1 DUP2 MSTORE PUSH1 0x20 ADD PUSH0 KECCAK256 DUP1 SLOAD DUP1 PUSH1 0x20 MUL PUSH1 0x20 ADD PUSH1 0x40 MLOAD SWAP1 DUP2 ADD PUSH1 0x40 MSTORE DUP1 SWAP3 SWAP2 SWAP1 DUP2 DUP2 MSTORE PUSH1 0x20 ADD DUP3 DUP1 SLOAD DUP1 ISZERO PUSH2 0x13E6 JUMPI PUSH1 0x20 MUL DUP3 ADD SWAP2 SWAP1 PUSH0 MSTORE PUSH1 0x20 PUSH0 KECCAK256 SWAP1 JUMPDEST DUP2 PUSH0 SWAP1 SLOAD SWAP1 PUSH2 0x100 EXP SWAP1 DIV PUSH20 0xFFFFFFFFFFFFFFFFFFFFFFFFFFFFFFFFFFFFFFFF AND PUSH20 0xFFFFFFFFFFFFFFFFFFFFFFFFFFFFFFFFFFFFFFFF AND DUP2 MSTORE PUSH1 0x20 ADD SWAP1 PUSH1 0x1 ADD SWAP1 DUP1 DUP4 GT PUSH2 0x139D JUMPI JUMPDEST POP POP POP POP POP SWAP1 POP PUSH0 PUSH0 SWAP1 POP JUMPDEST DUP2 MLOAD DUP2 LT ISZERO PUSH2 0x156E JUMPI PUSH0 DUP3 DUP3 DUP2 MLOAD DUP2 LT PUSH2 0x140F JUMPI PUSH2 0x140E PUSH2 0x2B1F JUMP JUMPDEST JUMPDEST PUSH1 0x20 MUL PUSH1 0x20 ADD ADD MLOAD SWAP1 POP PUSH0 PUSH1 0x8 PUSH0 DUP8 DUP2 MSTORE PUSH1 0x20 ADD SWAP1 DUP2 MSTORE PUSH1 0x20 ADD PUSH0 KECCAK256 PUSH0 DUP4 PUSH20 0xFFFFFFFFFFFFFFFFFFFFFFFFFFFFFFFFFFFFFFFF AND PUSH20 0xFFFFFFFFFFFFFFFFFFFFFFFFFFFFFFFFFFFFFFFF AND DUP2 MSTORE PUSH1 0x20 ADD SWAP1 DUP2 MSTORE PUSH1 0x20 ADD PUSH0 KECCAK256 SLOAD SWAP1 POP PUSH0 DUP2 GT ISZERO PUSH2 0x155F JUMPI PUSH0 PUSH0 SWAP1 SLOAD SWAP1 PUSH2 0x100 EXP SWAP1 DIV PUSH20 0xFFFFFFFFFFFFFFFFFFFFFFFFFFFFFFFFFFFFFFFF AND PUSH20 0xFFFFFFFFFFFFFFFFFFFFFFFFFFFFFFFFFFFFFFFF AND PUSH4 0xA9059CBB DUP4 DUP4 PUSH1 0x40 MLOAD DUP4 PUSH4 0xFFFFFFFF AND PUSH1 0xE0 SHL DUP2 MSTORE PUSH1 0x4 ADD PUSH2 0x14CC SWAP3 SWAP2 SWAP1 PUSH2 0x271D JUMP JUMPDEST PUSH1 0x20 PUSH1 0x40 MLOAD DUP1 DUP4 SUB DUP2 PUSH0 DUP8 GAS CALL ISZERO DUP1 ISZERO PUSH2 0x14E8 JUMPI RETURNDATASIZE PUSH0 PUSH0 RETURNDATACOPY RETURNDATASIZE PUSH0 REVERT JUMPDEST POP POP POP POP PUSH1 0x40 MLOAD RETURNDATASIZE PUSH1 0x1F NOT PUSH1 0x1F DUP3 ADD AND DUP3 ADD DUP1 PUSH1 0x40 MSTORE POP DUP2 ADD SWAP1 PUSH2 0x150C SWAP2 SWAP1 PUSH2 0x2758 JUMP JUMPDEST POP PUSH0 PUSH1 0x8 PUSH0 DUP9 DUP2 MSTORE PUSH1 0x20 ADD SWAP1 DUP2 MSTORE PUSH1 0x20 ADD PUSH0 KECCAK256 PUSH0 DUP5 PUSH20 0xFFFFFFFFFFFFFFFFFFFFFFFFFFFFFFFFFFFFFFFF AND PUSH20 0xFFFFFFFFFFFFFFFFFFFFFFFFFFFFFFFFFFFFFFFF AND DUP2 MSTORE PUSH1 0x20 ADD SWAP1 DUP2 MSTORE PUSH1 0x20 ADD PUSH0 KECCAK256 DUP2 SWAP1 SSTORE POP JUMPDEST POP POP DUP1 DUP1 PUSH1 0x1 ADD SWAP2 POP POP PUSH2 0x13F2 JUMP JUMPDEST POP PUSH0 PUSH1 0x7 PUSH0 DUP6 DUP2 MSTORE PUSH1 0x20 ADD SWAP1 DUP2 MSTORE PUSH1 0x20 ADD PUSH0 KECCAK256 DUP1 SLOAD DUP1 PUSH1 0x20 MUL PUSH1 0x20 ADD PUSH1 0x40 MLOAD SWAP1 DUP2 ADD PUSH1 0x40 MSTORE DUP1 SWAP3 SWAP2 SWAP1 DUP2 DUP2 MSTORE PUSH1 0x20 ADD DUP3 DUP1 SLOAD DUP1 ISZERO PUSH2 0x15FE JUMPI PUSH1 0x20 MUL DUP3 ADD SWAP2 SWAP1 PUSH0 MSTORE PUSH1 0x20 PUSH0 KECCAK256 SWAP1 JUMPDEST DUP2 PUSH0 SWAP1 SLOAD SWAP1 PUSH2 0x100 EXP SWAP1 DIV PUSH20 0xFFFFFFFFFFFFFFFFFFFFFFFFFFFFFFFFFFFFFFFF AND PUSH20 0xFFFFFFFFFFFFFFFFFFFFFFFFFFFFFFFFFFFFFFFF AND DUP2 MSTORE PUSH1 0x20 ADD SWAP1 PUSH1 0x1 ADD SWAP1 DUP1 DUP4 GT PUSH2 0x15B5 JUMPI JUMPDEST POP POP POP POP POP SWAP1 POP PUSH0 PUSH0 SWAP1 POP JUMPDEST DUP2 MLOAD DUP2 LT ISZERO PUSH2 0x1787 JUMPI PUSH0 DUP3 DUP3 DUP2 MLOAD DUP2 LT PUSH2 0x1627 JUMPI PUSH2 0x1626 PUSH2 0x2B1F JUMP JUMPDEST JUMPDEST PUSH1 0x20 MUL PUSH1 0x20 ADD ADD MLOAD SWAP1 POP PUSH0 PUSH1 0xA PUSH0 DUP9 DUP2 MSTORE PUSH1 0x20 ADD SWAP1 DUP2 MSTORE PUSH1 0x20 ADD PUSH0 KECCAK256 PUSH0 DUP4 PUSH20 0xFFFFFFFFFFFFFFFFFFFFFFFFFFFFFFFFFFFFFFFF AND PUSH20 0xFFFFFFFFFFFFFFFFFFFFFFFFFFFFFFFFFFFFFFFF AND DUP2 MSTORE PUSH1 0x20 ADD SWAP1 DUP2 MSTORE PUSH1 0x20 ADD PUSH0 KECCAK256 SLOAD SWAP1 POP PUSH0 DUP2 GT ISZERO PUSH2 0x1778 JUMPI PUSH1 0x1 PUSH0 SWAP1 SLOAD SWAP1 PUSH2 0x100 EXP SWAP1 DIV PUSH20 0xFFFFFFFFFFFFFFFFFFFFFFFFFFFFFFFFFFFFFFFF AND PUSH20 0xFFFFFFFFFFFFFFFFFFFFFFFFFFFFFFFFFFFFFFFF AND PUSH4 0xA9059CBB DUP4 DUP4 PUSH1 0x40 MLOAD DUP4 PUSH4 0xFFFFFFFF AND PUSH1 0xE0 SHL DUP2 MSTORE PUSH1 0x4 ADD PUSH2 0x16E5 SWAP3 SWAP2 SWAP1 PUSH2 0x271D JUMP JUMPDEST PUSH1 0x20 PUSH1 0x40 MLOAD DUP1 DUP4 SUB DUP2 PUSH0 DUP8 GAS CALL ISZERO DUP1 ISZERO PUSH2 0x1701 JUMPI RETURNDATASIZE PUSH0 PUSH0 RETURNDATACOPY RETURNDATASIZE PUSH0 REVERT JUMPDEST POP POP POP POP PUSH1 0x40 MLOAD RETURNDATASIZE PUSH1 0x1F NOT PUSH1 0x1F DUP3 ADD AND DUP3 ADD DUP1 PUSH1 0x40 MSTORE POP DUP2 ADD SWAP1 PUSH2 0x1725 SWAP2 SWAP1 PUSH2 0x2758 JUMP JUMPDEST POP PUSH0 PUSH1 0xA PUSH0 DUP10 DUP2 MSTORE PUSH1 0x20 ADD SWAP1 DUP2 MSTORE PUSH1 0x20 ADD PUSH0 KECCAK256 PUSH0 DUP5 PUSH20 0xFFFFFFFFFFFFFFFFFFFFFFFFFFFFFFFFFFFFFFFF AND PUSH20 0xFFFFFFFFFFFFFFFFFFFFFFFFFFFFFFFFFFFFFFFF AND DUP2 MSTORE PUSH1 0x20 ADD SWAP1 DUP2 MSTORE PUSH1 0x20 ADD PUSH0 KECCAK256 DUP2 SWAP1 SSTORE POP JUMPDEST POP POP DUP1 DUP1 PUSH1 0x1 ADD SWAP2 POP POP PUSH2 0x160A JUMP JUMPDEST POP POP POP POP POP JUMP JUMPDEST PUSH1 0x60 PUSH1 0xC PUSH0 CALLER PUSH20 0xFFFFFFFFFFFFFFFFFFFFFFFFFFFFFFFFFFFFFFFF AND PUSH20 0xFFFFFFFFFFFFFFFFFFFFFFFFFFFFFFFFFFFFFFFF AND DUP2 MSTORE PUSH1 0x20 ADD SWAP1 DUP2 MSTORE PUSH1 0x20 ADD PUSH0 KECCAK256 PUSH0 DUP4 DUP2 MSTORE PUSH1 0x20 ADD SWAP1 DUP2 MSTORE PUSH1 0x20 ADD PUSH0 KECCAK256 DUP1 SLOAD DUP1 PUSH1 0x20 MUL PUSH1 0x20 ADD PUSH1 0x40 MLOAD SWAP1 DUP2 ADD PUSH1 0x40 MSTORE DUP1 SWAP3 SWAP2 SWAP1 DUP2 DUP2 MSTORE PUSH1 0x20 ADD PUSH0 SWAP1 JUMPDEST DUP3 DUP3 LT ISZERO PUSH2 0x1889 JUMPI DUP4 DUP3 SWAP1 PUSH0 MSTORE PUSH1 0x20 PUSH0 KECCAK256 SWAP1 PUSH1 0x2 MUL ADD PUSH1 0x40 MLOAD DUP1 PUSH1 0x40 ADD PUSH1 0x40 MSTORE SWAP1 DUP2 PUSH0 DUP3 ADD PUSH0 SWAP1 SLOAD SWAP1 PUSH2 0x100 EXP SWAP1 DIV PUSH20 0xFFFFFFFFFFFFFFFFFFFFFFFFFFFFFFFFFFFFFFFF AND PUSH20 0xFFFFFFFFFFFFFFFFFFFFFFFFFFFFFFFFFFFFFFFF AND PUSH20 0xFFFFFFFFFFFFFFFFFFFFFFFFFFFFFFFFFFFFFFFF AND DUP2 MSTORE PUSH1 0x20 ADD PUSH1 0x1 DUP3 ADD SLOAD DUP2 MSTORE POP POP DUP2 MSTORE PUSH1 0x20 ADD SWAP1 PUSH1 0x1 ADD SWAP1 PUSH2 0x17FB JUMP JUMPDEST POP POP POP POP SWAP1 POP SWAP2 SWAP1 POP JUMP JUMPDEST PUSH1 0x3 SLOAD DUP2 JUMP JUMPDEST PUSH0 PUSH1 0x6 PUSH0 DUP4 PUSH20 0xFFFFFFFFFFFFFFFFFFFFFFFFFFFFFFFFFFFFFFFF AND PUSH20 0xFFFFFFFFFFFFFFFFFFFFFFFFFFFFFFFFFFFFFFFF AND DUP2 MSTORE PUSH1 0x20 ADD SWAP1 DUP2 MSTORE PUSH1 0x20 ADD PUSH0 KECCAK256 PUSH0 SWAP1 SLOAD SWAP1 PUSH2 0x100 EXP SWAP1 DIV PUSH1 0xFF AND SWAP1 POP SWAP2 SWAP1 POP JUMP JUMPDEST PUSH0 PUSH1 0x6 PUSH0 CALLER PUSH20 0xFFFFFFFFFFFFFFFFFFFFFFFFFFFFFFFFFFFFFFFF AND PUSH20 0xFFFFFFFFFFFFFFFFFFFFFFFFFFFFFFFFFFFFFFFF AND DUP2 MSTORE PUSH1 0x20 ADD SWAP1 DUP2 MSTORE PUSH1 0x20 ADD PUSH0 KECCAK256 PUSH0 SWAP1 SLOAD SWAP1 PUSH2 0x100 EXP SWAP1 DIV PUSH1 0xFF AND PUSH2 0x1976 JUMPI PUSH1 0x40 MLOAD PUSH32 0x8C379A000000000000000000000000000000000000000000000000000000000 DUP2 MSTORE PUSH1 0x4 ADD PUSH2 0x196D SWAP1 PUSH2 0x29C9 JUMP JUMPDEST PUSH1 0x40 MLOAD DUP1 SWAP2 SUB SWAP1 REVERT JUMPDEST PUSH0 DUP6 GT PUSH2 0x19B8 JUMPI PUSH1 0x40 MLOAD PUSH32 0x8C379A000000000000000000000000000000000000000000000000000000000 DUP2 MSTORE PUSH1 0x4 ADD PUSH2 0x19AF SWAP1 PUSH2 0x2B96 JUMP JUMPDEST PUSH1 0x40 MLOAD DUP1 SWAP2 SUB SWAP1 REVERT JUMPDEST PUSH0 PUSH1 0x4 PUSH0 DUP2 SLOAD DUP1 SWAP3 SWAP2 SWAP1 PUSH2 0x19CB SWAP1 PUSH2 0x2BB4 JUMP JUMPDEST SWAP2 SWAP1 POP SSTORE SWAP1 POP PUSH0 PUSH1 0x5 PUSH0 DUP4 DUP2 MSTORE PUSH1 0x20 ADD SWAP1 DUP2 MSTORE PUSH1 0x20 ADD PUSH0 KECCAK256 SWAP1 POP DUP9 DUP2 PUSH1 0x7 ADD PUSH1 0x1 PUSH2 0x100 EXP DUP2 SLOAD DUP2 PUSH1 0xFF MUL NOT AND SWAP1 DUP4 PUSH1 0x5 DUP2 GT ISZERO PUSH2 0x1A0C JUMPI PUSH2 0x1A0B PUSH2 0x1F37 JUMP JUMPDEST JUMPDEST MUL OR SWAP1 SSTORE POP DUP8 DUP2 PUSH1 0x7 ADD PUSH0 PUSH2 0x100 EXP DUP2 SLOAD DUP2 PUSH1 0xFF MUL NOT AND SWAP1 DUP4 PUSH1 0x2 DUP2 GT ISZERO PUSH2 0x1A37 JUMPI PUSH2 0x1A36 PUSH2 0x1F37 JUMP JUMPDEST JUMPDEST MUL OR SWAP1 SSTORE POP DUP5 DUP2 PUSH1 0x8 ADD DUP2 SWAP1 SSTORE POP DUP6 DUP2 PUSH1 0x9 ADD DUP2 SWAP1 SSTORE POP DUP4 DUP2 PUSH1 0x4 ADD PUSH0 PUSH2 0x100 EXP DUP2 SLOAD DUP2 PUSH20 0xFFFFFFFFFFFFFFFFFFFFFFFFFFFFFFFFFFFFFFFF MUL NOT AND SWAP1 DUP4 PUSH20 0xFFFFFFFFFFFFFFFFFFFFFFFFFFFFFFFFFFFFFFFF AND MUL OR SWAP1 SSTORE POP CALLER DUP2 PUSH1 0x3 ADD PUSH0 PUSH2 0x100 EXP DUP2 SLOAD DUP2 PUSH20 0xFFFFFFFFFFFFFFFFFFFFFFFFFFFFFFFFFFFFFFFF MUL NOT AND SWAP1 DUP4 PUSH20 0xFFFFFFFFFFFFFFFFFFFFFFFFFFFFFFFFFFFFFFFF AND MUL OR SWAP1 SSTORE POP PUSH0 DUP2 PUSH0 ADD PUSH0 PUSH2 0x100 EXP DUP2 SLOAD DUP2 PUSH1 0xFF MUL NOT AND SWAP1 DUP4 PUSH1 0x2 DUP2 GT ISZERO PUSH2 0x1AF7 JUMPI PUSH2 0x1AF6 PUSH2 0x1F37 JUMP JUMPDEST JUMPDEST MUL OR SWAP1 SSTORE POP TIMESTAMP DUP2 PUSH1 0x1 ADD DUP2 SWAP1 SSTORE POP PUSH1 0x3C DUP8 PUSH2 0x1B12 SWAP2 SWAP1 PUSH2 0x2BFB JUMP JUMPDEST TIMESTAMP PUSH2 0x1B1D SWAP2 SWAP1 PUSH2 0x2526 JUMP JUMPDEST DUP2 PUSH1 0x2 ADD DUP2 SWAP1 SSTORE POP PUSH0 PUSH1 0x5 DUP2 GT ISZERO PUSH2 0x1B38 JUMPI PUSH2 0x1B37 PUSH2 0x1F37 JUMP JUMPDEST JUMPDEST DUP10 PUSH1 0x5 DUP2 GT ISZERO PUSH2 0x1B4B JUMPI PUSH2 0x1B4A PUSH2 0x1F37 JUMP JUMPDEST JUMPDEST EQ DUP1 PUSH2 0x1B7B JUMPI POP PUSH1 0x1 PUSH1 0x5 DUP2 GT ISZERO PUSH2 0x1B66 JUMPI PUSH2 0x1B65 PUSH2 0x1F37 JUMP JUMPDEST JUMPDEST DUP10 PUSH1 0x5 DUP2 GT ISZERO PUSH2 0x1B79 JUMPI PUSH2 0x1B78 PUSH2 0x1F37 JUMP JUMPDEST JUMPDEST EQ JUMPDEST ISZERO PUSH2 0x1BEB JUMPI PUSH1 0x2 DUP1 DUP2 GT ISZERO PUSH2 0x1B93 JUMPI PUSH2 0x1B92 PUSH2 0x1F37 JUMP JUMPDEST JUMPDEST DUP9 PUSH1 0x2 DUP2 GT ISZERO PUSH2 0x1BA6 JUMPI PUSH2 0x1BA5 PUSH2 0x1F37 JUMP JUMPDEST JUMPDEST EQ PUSH2 0x1BE6 JUMPI PUSH1 0x40 MLOAD PUSH32 0x8C379A000000000000000000000000000000000000000000000000000000000 DUP2 MSTORE PUSH1 0x4 ADD PUSH2 0x1BDD SWAP1 PUSH2 0x2C86 JUMP JUMPDEST PUSH1 0x40 MLOAD DUP1 SWAP2 SUB SWAP1 REVERT JUMPDEST PUSH2 0x1C52 JUMP JUMPDEST PUSH1 0x2 DUP1 DUP2 GT ISZERO PUSH2 0x1BFE JUMPI PUSH2 0x1BFD PUSH2 0x1F37 JUMP JUMPDEST JUMPDEST DUP9 PUSH1 0x2 DUP2 GT ISZERO PUSH2 0x1C11 JUMPI PUSH2 0x1C10 PUSH2 0x1F37 JUMP JUMPDEST JUMPDEST SUB PUSH2 0x1C51 JUMPI PUSH1 0x40 MLOAD PUSH32 0x8C379A000000000000000000000000000000000000000000000000000000000 DUP2 MSTORE PUSH1 0x4 ADD PUSH2 0x1C48 SWAP1 PUSH2 0x2CEE JUMP JUMPDEST PUSH1 0x40 MLOAD DUP1 SWAP2 SUB SWAP1 REVERT JUMPDEST JUMPDEST DUP2 PUSH32 0x83ACB1B03B4345BFE17D72C4BE5372C6FBCBD6CAD468F8CF85467D20C8F228D DUP11 PUSH1 0x40 MLOAD PUSH2 0x1C82 SWAP2 SWAP1 PUSH2 0x2D0C JUMP JUMPDEST PUSH1 0x40 MLOAD DUP1 SWAP2 SUB SWAP1 LOG2 DUP2 SWAP3 POP POP POP SWAP7 SWAP6 POP POP POP POP POP POP JUMP JUMPDEST PUSH1 0x4 SLOAD DUP2 JUMP JUMPDEST PUSH0 PUSH0 PUSH1 0x5 PUSH0 DUP5 DUP2 MSTORE PUSH1 0x20 ADD SWAP1 DUP2 MSTORE PUSH1 0x20 ADD PUSH0 KECCAK256 SWAP1 POP PUSH0 DUP2 PUSH1 0x6 ADD SLOAD DUP3 PUSH1 0x5 ADD SLOAD PUSH2 0x1CC9 SWAP2 SWAP1 PUSH2 0x2526 JUMP JUMPDEST SWAP1 POP PUSH1 0x2 DUP1 DUP2 GT ISZERO PUSH2 0x1CDE JUMPI PUSH2 0x1CDD PUSH2 0x1F37 JUMP JUMPDEST JUMPDEST DUP3 PUSH1 0x7 ADD PUSH0 SWAP1 SLOAD SWAP1 PUSH2 0x100 EXP SWAP1 DIV PUSH1 0xFF AND PUSH1 0x2 DUP2 GT ISZERO PUSH2 0x1D01 JUMPI PUSH2 0x1D00 PUSH2 0x1F37 JUMP JUMPDEST JUMPDEST SUB PUSH2 0x1D1A JUMPI DUP2 PUSH1 0x6 ADD SLOAD DUP3 PUSH1 0x5 ADD SLOAD GT SWAP3 POP POP POP PUSH2 0x1DFE JUMP JUMPDEST PUSH0 PUSH1 0x2 DUP2 GT ISZERO PUSH2 0x1D2D JUMPI PUSH2 0x1D2C PUSH2 0x1F37 JUMP JUMPDEST JUMPDEST DUP3 PUSH1 0x7 ADD PUSH0 SWAP1 SLOAD SWAP1 PUSH2 0x100 EXP SWAP1 DIV PUSH1 0xFF AND PUSH1 0x2 DUP2 GT ISZERO PUSH2 0x1D50 JUMPI PUSH2 0x1D4F PUSH2 0x1F37 JUMP JUMPDEST JUMPDEST SUB PUSH2 0x1D82 JUMPI PUSH0 DUP2 SUB PUSH2 0x1D66 JUMPI PUSH0 SWAP3 POP POP POP PUSH2 0x1DFE JUMP JUMPDEST DUP1 PUSH1 0x2 DUP4 PUSH1 0x5 ADD SLOAD PUSH2 0x1D78 SWAP2 SWAP1 PUSH2 0x2BFB JUMP JUMPDEST GT SWAP3 POP POP POP PUSH2 0x1DFE JUMP JUMPDEST PUSH1 0x1 PUSH1 0x2 DUP2 GT ISZERO PUSH2 0x1D96 JUMPI PUSH2 0x1D95 PUSH2 0x1F37 JUMP JUMPDEST JUMPDEST DUP3 PUSH1 0x7 ADD PUSH0 SWAP1 SLOAD SWAP1 PUSH2 0x100 EXP SWAP1 DIV PUSH1 0xFF AND PUSH1 0x2 DUP2 GT ISZERO PUSH2 0x1DB9 JUMPI PUSH2 0x1DB8 PUSH2 0x1F37 JUMP JUMPDEST JUMPDEST SUB PUSH2 0x1DF8 JUMPI PUSH0 DUP2 SUB PUSH2 0x1DCF JUMPI PUSH0 SWAP3 POP POP POP PUSH2 0x1DFE JUMP JUMPDEST PUSH1 0x2 DUP2 PUSH2 0x1DDC SWAP2 SWAP1 PUSH2 0x2BFB JUMP JUMPDEST PUSH1 0x3 DUP4 PUSH1 0x5 ADD SLOAD PUSH2 0x1DED SWAP2 SWAP1 PUSH2 0x2BFB JUMP JUMPDEST LT ISZERO SWAP3 POP POP POP PUSH2 0x1DFE JUMP JUMPDEST PUSH0 SWAP3 POP POP POP JUMPDEST SWAP2 SWAP1 POP JUMP JUMPDEST PUSH0 PUSH0 REVERT JUMPDEST PUSH0 PUSH20 0xFFFFFFFFFFFFFFFFFFFFFFFFFFFFFFFFFFFFFFFF DUP3 AND SWAP1 POP SWAP2 SWAP1 POP JUMP JUMPDEST PUSH0 PUSH2 0x1E30 DUP3 PUSH2 0x1E07 JUMP JUMPDEST SWAP1 POP SWAP2 SWAP1 POP JUMP JUMPDEST PUSH2 0x1E40 DUP2 PUSH2 0x1E26 JUMP JUMPDEST DUP2 EQ PUSH2 0x1E4A JUMPI PUSH0 PUSH0 REVERT JUMPDEST POP JUMP JUMPDEST PUSH0 DUP2 CALLDATALOAD SWAP1 POP PUSH2 0x1E5B DUP2 PUSH2 0x1E37 JUMP JUMPDEST SWAP3 SWAP2 POP POP JUMP JUMPDEST PUSH0 DUP2 SWAP1 POP SWAP2 SWAP1 POP JUMP JUMPDEST PUSH2 0x1E73 DUP2 PUSH2 0x1E61 JUMP JUMPDEST DUP2 EQ PUSH2 0x1E7D JUMPI PUSH0 PUSH0 REVERT JUMPDEST POP JUMP JUMPDEST PUSH0 DUP2 CALLDATALOAD SWAP1 POP PUSH2 0x1E8E DUP2 PUSH2 0x1E6A JUMP JUMPDEST SWAP3 SWAP2 POP POP JUMP JUMPDEST PUSH0 PUSH0 PUSH0 PUSH1 0x60 DUP5 DUP7 SUB SLT ISZERO PUSH2 0x1EAB JUMPI PUSH2 0x1EAA PUSH2 0x1E03 JUMP JUMPDEST JUMPDEST PUSH0 PUSH2 0x1EB8 DUP7 DUP3 DUP8 ADD PUSH2 0x1E4D JUMP JUMPDEST SWAP4 POP POP PUSH1 0x20 PUSH2 0x1EC9 DUP7 DUP3 DUP8 ADD PUSH2 0x1E80 JUMP JUMPDEST SWAP3 POP POP PUSH1 0x40 PUSH2 0x1EDA DUP7 DUP3 DUP8 ADD PUSH2 0x1E80 JUMP JUMPDEST SWAP2 POP POP SWAP3 POP SWAP3 POP SWAP3 JUMP JUMPDEST PUSH2 0x1EED DUP2 PUSH2 0x1E61 JUMP JUMPDEST DUP3 MSTORE POP POP JUMP JUMPDEST PUSH0 PUSH1 0x20 DUP3 ADD SWAP1 POP PUSH2 0x1F06 PUSH0 DUP4 ADD DUP5 PUSH2 0x1EE4 JUMP JUMPDEST SWAP3 SWAP2 POP POP JUMP JUMPDEST PUSH0 PUSH1 0x20 DUP3 DUP5 SUB SLT ISZERO PUSH2 0x1F21 JUMPI PUSH2 0x1F20 PUSH2 0x1E03 JUMP JUMPDEST JUMPDEST PUSH0 PUSH2 0x1F2E DUP5 DUP3 DUP6 ADD PUSH2 0x1E80 JUMP JUMPDEST SWAP2 POP POP SWAP3 SWAP2 POP POP JUMP JUMPDEST PUSH32 0x4E487B7100000000000000000000000000000000000000000000000000000000 PUSH0 MSTORE PUSH1 0x21 PUSH1 0x4 MSTORE PUSH1 0x24 PUSH0 REVERT JUMPDEST PUSH1 0x3 DUP2 LT PUSH2 0x1F75 JUMPI PUSH2 0x1F74 PUSH2 0x1F37 JUMP JUMPDEST JUMPDEST POP JUMP JUMPDEST PUSH0 DUP2 SWAP1 POP PUSH2 0x1F85 DUP3 PUSH2 0x1F64 JUMP JUMPDEST SWAP2 SWAP1 POP JUMP JUMPDEST PUSH0 PUSH2 0x1F94 DUP3 PUSH2 0x1F78 JUMP JUMPDEST SWAP1 POP SWAP2 SWAP1 POP JUMP JUMPDEST PUSH2 0x1FA4 DUP2 PUSH2 0x1F8A JUMP JUMPDEST DUP3 MSTORE POP POP JUMP JUMPDEST PUSH1 0x3 DUP2 LT PUSH2 0x1FBB JUMPI PUSH2 0x1FBA PUSH2 0x1F37 JUMP JUMPDEST JUMPDEST POP JUMP JUMPDEST PUSH0 DUP2 SWAP1 POP PUSH2 0x1FCB DUP3 PUSH2 0x1FAA JUMP JUMPDEST SWAP2 SWAP1 POP JUMP JUMPDEST PUSH0 PUSH2 0x1FDA DUP3 PUSH2 0x1FBE JUMP JUMPDEST SWAP1 POP SWAP2 SWAP1 POP JUMP JUMPDEST PUSH2 0x1FEA DUP2 PUSH2 0x1FD0 JUMP JUMPDEST DUP3 MSTORE POP POP JUMP JUMPDEST PUSH1 0x6 DUP2 LT PUSH2 0x2001 JUMPI PUSH2 0x2000 PUSH2 0x1F37 JUMP JUMPDEST JUMPDEST POP JUMP JUMPDEST PUSH0 DUP2 SWAP1 POP PUSH2 0x2011 DUP3 PUSH2 0x1FF0 JUMP JUMPDEST SWAP2 SWAP1 POP JUMP JUMPDEST PUSH0 PUSH2 0x2020 DUP3 PUSH2 0x2004 JUMP JUMPDEST SWAP1 POP SWAP2 SWAP1 POP JUMP JUMPDEST PUSH2 0x2030 DUP2 PUSH2 0x2016 JUMP JUMPDEST DUP3 MSTORE POP POP JUMP JUMPDEST PUSH2 0x203F DUP2 PUSH2 0x1E26 JUMP JUMPDEST DUP3 MSTORE POP POP JUMP JUMPDEST PUSH0 PUSH1 0xE0 DUP3 ADD SWAP1 POP PUSH2 0x2058 PUSH0 DUP4 ADD DUP11 PUSH2 0x1F9B JUMP JUMPDEST PUSH2 0x2065 PUSH1 0x20 DUP4 ADD DUP10 PUSH2 0x1EE4 JUMP JUMPDEST PUSH2 0x2072 PUSH1 0x40 DUP4 ADD DUP9 PUSH2 0x1EE4 JUMP JUMPDEST PUSH2 0x207F PUSH1 0x60 DUP4 ADD DUP8 PUSH2 0x1FE1 JUMP JUMPDEST PUSH2 0x208C PUSH1 0x80 DUP4 ADD DUP7 PUSH2 0x2027 JUMP JUMPDEST PUSH2 0x2099 PUSH1 0xA0 DUP4 ADD DUP6 PUSH2 0x2036 JUMP JUMPDEST PUSH2 0x20A6 PUSH1 0xC0 DUP4 ADD DUP5 PUSH2 0x2036 JUMP JUMPDEST SWAP9 SWAP8 POP POP POP POP POP POP POP POP JUMP JUMPDEST PUSH0 DUP2 SWAP1 POP SWAP2 SWAP1 POP JUMP JUMPDEST PUSH0 PUSH2 0x20D5 PUSH2 0x20D0 PUSH2 0x20CB DUP5 PUSH2 0x1E07 JUMP JUMPDEST PUSH2 0x20B2 JUMP JUMPDEST PUSH2 0x1E07 JUMP JUMPDEST SWAP1 POP SWAP2 SWAP1 POP JUMP JUMPDEST PUSH0 PUSH2 0x20E6 DUP3 PUSH2 0x20BB JUMP JUMPDEST SWAP1 POP SWAP2 SWAP1 POP JUMP JUMPDEST PUSH0 PUSH2 0x20F7 DUP3 PUSH2 0x20DC JUMP JUMPDEST SWAP1 POP SWAP2 SWAP1 POP JUMP JUMPDEST PUSH2 0x2107 DUP2 PUSH2 0x20ED JUMP JUMPDEST DUP3 MSTORE POP POP JUMP JUMPDEST PUSH0 PUSH1 0x20 DUP3 ADD SWAP1 POP PUSH2 0x2120 PUSH0 DUP4 ADD DUP5 PUSH2 0x20FE JUMP JUMPDEST SWAP3 SWAP2 POP POP JUMP JUMPDEST PUSH0 PUSH2 0x2130 DUP3 PUSH2 0x20DC JUMP JUMPDEST SWAP1 POP SWAP2 SWAP1 POP JUMP JUMPDEST PUSH2 0x2140 DUP2 PUSH2 0x2126 JUMP JUMPDEST DUP3 MSTORE POP POP JUMP JUMPDEST PUSH0 PUSH1 0x20 DUP3 ADD SWAP1 POP PUSH2 0x2159 PUSH0 DUP4 ADD DUP5 PUSH2 0x2137 JUMP JUMPDEST SWAP3 SWAP2 POP POP JUMP JUMPDEST PUSH0 DUP2 ISZERO ISZERO SWAP1 POP SWAP2 SWAP1 POP JUMP JUMPDEST PUSH2 0x2173 DUP2 PUSH2 0x215F JUMP JUMPDEST DUP2 EQ PUSH2 0x217D JUMPI PUSH0 PUSH0 REVERT JUMPDEST POP JUMP JUMPDEST PUSH0 DUP2 CALLDATALOAD SWAP1 POP PUSH2 0x218E DUP2 PUSH2 0x216A JUMP JUMPDEST SWAP3 SWAP2 POP POP JUMP JUMPDEST PUSH0 PUSH0 PUSH0 PUSH1 0x60 DUP5 DUP7 SUB SLT ISZERO PUSH2 0x21AB JUMPI PUSH2 0x21AA PUSH2 0x1E03 JUMP JUMPDEST JUMPDEST PUSH0 PUSH2 0x21B8 DUP7 DUP3 DUP8 ADD PUSH2 0x1E80 JUMP JUMPDEST SWAP4 POP POP PUSH1 0x20 PUSH2 0x21C9 DUP7 DUP3 DUP8 ADD PUSH2 0x1E80 JUMP JUMPDEST SWAP3 POP POP PUSH1 0x40 PUSH2 0x21DA DUP7 DUP3 DUP8 ADD PUSH2 0x2180 JUMP JUMPDEST SWAP2 POP POP SWAP3 POP SWAP3 POP SWAP3 JUMP JUMPDEST PUSH0 DUP2 MLOAD SWAP1 POP SWAP2 SWAP1 POP JUMP JUMPDEST PUSH0 DUP3 DUP3 MSTORE PUSH1 0x20 DUP3 ADD SWAP1 POP SWAP3 SWAP2 POP POP JUMP JUMPDEST PUSH0 DUP2 SWAP1 POP PUSH1 0x20 DUP3 ADD SWAP1 POP SWAP2 SWAP1 POP JUMP JUMPDEST PUSH2 0x2216 DUP2 PUSH2 0x1E26 JUMP JUMPDEST DUP3 MSTORE POP POP JUMP JUMPDEST PUSH2 0x2225 DUP2 PUSH2 0x1E61 JUMP JUMPDEST DUP3 MSTORE POP POP JUMP JUMPDEST PUSH1 0x40 DUP3 ADD PUSH0 DUP3 ADD MLOAD PUSH2 0x223F PUSH0 DUP6 ADD DUP3 PUSH2 0x220D JUMP JUMPDEST POP PUSH1 0x20 DUP3 ADD MLOAD PUSH2 0x2252 PUSH1 0x20 DUP6 ADD DUP3 PUSH2 0x221C JUMP JUMPDEST POP POP POP POP JUMP JUMPDEST PUSH0 PUSH2 0x2263 DUP4 DUP4 PUSH2 0x222B JUMP JUMPDEST PUSH1 0x40 DUP4 ADD SWAP1 POP SWAP3 SWAP2 POP POP JUMP JUMPDEST PUSH0 PUSH1 0x20 DUP3 ADD SWAP1 POP SWAP2 SWAP1 POP JUMP JUMPDEST PUSH0 PUSH2 0x2285 DUP3 PUSH2 0x21E4 JUMP JUMPDEST PUSH2 0x228F DUP2 DUP6 PUSH2 0x21EE JUMP JUMPDEST SWAP4 POP PUSH2 0x229A DUP4 PUSH2 0x21FE JUMP JUMPDEST DUP1 PUSH0 JUMPDEST DUP4 DUP2 LT ISZERO PUSH2 0x22CA JUMPI DUP2 MLOAD PUSH2 0x22B1 DUP9 DUP3 PUSH2 0x2258 JUMP JUMPDEST SWAP8 POP PUSH2 0x22BC DUP4 PUSH2 0x226F JUMP JUMPDEST SWAP3 POP POP PUSH1 0x1 DUP2 ADD SWAP1 POP PUSH2 0x229D JUMP JUMPDEST POP DUP6 SWAP4 POP POP POP POP SWAP3 SWAP2 POP POP JUMP JUMPDEST PUSH0 PUSH1 0x20 DUP3 ADD SWAP1 POP DUP2 DUP2 SUB PUSH0 DUP4 ADD MSTORE PUSH2 0x22EF DUP2 DUP5 PUSH2 0x227B JUMP JUMPDEST SWAP1 POP SWAP3 SWAP2 POP POP JUMP JUMPDEST PUSH0 PUSH1 0x20 DUP3 DUP5 SUB SLT ISZERO PUSH2 0x230C JUMPI PUSH2 0x230B PUSH2 0x1E03 JUMP JUMPDEST JUMPDEST PUSH0 PUSH2 0x2319 DUP5 DUP3 DUP6 ADD PUSH2 0x1E4D JUMP JUMPDEST SWAP2 POP POP SWAP3 SWAP2 POP POP JUMP JUMPDEST PUSH2 0x232B DUP2 PUSH2 0x215F JUMP JUMPDEST DUP3 MSTORE POP POP JUMP JUMPDEST PUSH0 PUSH1 0x20 DUP3 ADD SWAP1 POP PUSH2 0x2344 PUSH0 DUP4 ADD DUP5 PUSH2 0x2322 JUMP JUMPDEST SWAP3 SWAP2 POP POP JUMP JUMPDEST PUSH1 0x6 DUP2 LT PUSH2 0x2356 JUMPI PUSH0 PUSH0 REVERT JUMPDEST POP JUMP JUMPDEST PUSH0 DUP2 CALLDATALOAD SWAP1 POP PUSH2 0x2367 DUP2 PUSH2 0x234A JUMP JUMPDEST SWAP3 SWAP2 POP POP JUMP JUMPDEST PUSH1 0x3 DUP2 LT PUSH2 0x2379 JUMPI PUSH0 PUSH0 REVERT JUMPDEST POP JUMP JUMPDEST PUSH0 DUP2 CALLDATALOAD SWAP1 POP PUSH2 0x238A DUP2 PUSH2 0x236D JUMP JUMPDEST SWAP3 SWAP2 POP POP JUMP JUMPDEST PUSH0 PUSH0 PUSH0 PUSH0 PUSH0 PUSH0 PUSH1 0xC0 DUP8 DUP10 SUB SLT ISZERO PUSH2 0x23AA JUMPI PUSH2 0x23A9 PUSH2 0x1E03 JUMP JUMPDEST JUMPDEST PUSH0 PUSH2 0x23B7 DUP10 DUP3 DUP11 ADD PUSH2 0x2359 JUMP JUMPDEST SWAP7 POP POP PUSH1 0x20 PUSH2 0x23C8 DUP10 DUP3 DUP11 ADD PUSH2 0x237C JUMP JUMPDEST SWAP6 POP POP PUSH1 0x40 PUSH2 0x23D9 DUP10 DUP3 DUP11 ADD PUSH2 0x1E80 JUMP JUMPDEST SWAP5 POP POP PUSH1 0x60 PUSH2 0x23EA DUP10 DUP3 DUP11 ADD PUSH2 0x1E80 JUMP JUMPDEST SWAP4 POP POP PUSH1 0x80 PUSH2 0x23FB DUP10 DUP3 DUP11 ADD PUSH2 0x1E80 JUMP JUMPDEST SWAP3 POP POP PUSH1 0xA0 PUSH2 0x240C DUP10 DUP3 DUP11 ADD PUSH2 0x1E4D JUMP JUMPDEST SWAP2 POP POP SWAP3 SWAP6 POP SWAP3 SWAP6 POP SWAP3 SWAP6 JUMP JUMPDEST PUSH0 DUP3 DUP3 MSTORE PUSH1 0x20 DUP3 ADD SWAP1 POP SWAP3 SWAP2 POP POP JUMP JUMPDEST PUSH32 0x63616E206E6F742064656C656761746520746F2073656C660000000000000000 PUSH0 DUP3 ADD MSTORE POP JUMP JUMPDEST PUSH0 PUSH2 0x245D PUSH1 0x18 DUP4 PUSH2 0x2419 JUMP JUMPDEST SWAP2 POP PUSH2 0x2468 DUP3 PUSH2 0x2429 JUMP JUMPDEST PUSH1 0x20 DUP3 ADD SWAP1 POP SWAP2 SWAP1 POP JUMP JUMPDEST PUSH0 PUSH1 0x20 DUP3 ADD SWAP1 POP DUP2 DUP2 SUB PUSH0 DUP4 ADD MSTORE PUSH2 0x248A DUP2 PUSH2 0x2451 JUMP JUMPDEST SWAP1 POP SWAP2 SWAP1 POP JUMP JUMPDEST PUSH32 0x776569676874206D757374206265206D6F7265207468616E2030000000000000 PUSH0 DUP3 ADD MSTORE POP JUMP JUMPDEST PUSH0 PUSH2 0x24C5 PUSH1 0x1A DUP4 PUSH2 0x2419 JUMP JUMPDEST SWAP2 POP PUSH2 0x24D0 DUP3 PUSH2 0x2491 JUMP JUMPDEST PUSH1 0x20 DUP3 ADD SWAP1 POP SWAP2 SWAP1 POP JUMP JUMPDEST PUSH0 PUSH1 0x20 DUP3 ADD SWAP1 POP DUP2 DUP2 SUB PUSH0 DUP4 ADD MSTORE PUSH2 0x24F2 DUP2 PUSH2 0x24B9 JUMP JUMPDEST SWAP1 POP SWAP2 SWAP1 POP JUMP JUMPDEST PUSH32 0x4E487B7100000000000000000000000000000000000000000000000000000000 PUSH0 MSTORE PUSH1 0x11 PUSH1 0x4 MSTORE PUSH1 0x24 PUSH0 REVERT JUMPDEST PUSH0 PUSH2 0x2530 DUP3 PUSH2 0x1E61 JUMP JUMPDEST SWAP2 POP PUSH2 0x253B DUP4 PUSH2 0x1E61 JUMP JUMPDEST SWAP3 POP DUP3 DUP3 ADD SWAP1 POP DUP1 DUP3 GT ISZERO PUSH2 0x2553 JUMPI PUSH2 0x2552 PUSH2 0x24F9 JUMP JUMPDEST JUMPDEST SWAP3 SWAP2 POP POP JUMP JUMPDEST PUSH32 0x73656E6420455448000000000000000000000000000000000000000000000000 PUSH0 DUP3 ADD MSTORE POP JUMP JUMPDEST PUSH0 PUSH2 0x258D PUSH1 0x8 DUP4 PUSH2 0x2419 JUMP JUMPDEST SWAP2 POP PUSH2 0x2598 DUP3 PUSH2 0x2559 JUMP JUMPDEST PUSH1 0x20 DUP3 ADD SWAP1 POP SWAP2 SWAP1 POP JUMP JUMPDEST PUSH0 PUSH1 0x20 DUP3 ADD SWAP1 POP DUP2 DUP2 SUB PUSH0 DUP4 ADD MSTORE PUSH2 0x25BA DUP2 PUSH2 0x2581 JUMP JUMPDEST SWAP1 POP SWAP2 SWAP1 POP JUMP JUMPDEST PUSH32 0x4E487B7100000000000000000000000000000000000000000000000000000000 PUSH0 MSTORE PUSH1 0x12 PUSH1 0x4 MSTORE PUSH1 0x24 PUSH0 REVERT JUMPDEST PUSH0 PUSH2 0x25F8 DUP3 PUSH2 0x1E61 JUMP JUMPDEST SWAP2 POP PUSH2 0x2603 DUP4 PUSH2 0x1E61 JUMP JUMPDEST SWAP3 POP DUP3 PUSH2 0x2613 JUMPI PUSH2 0x2612 PUSH2 0x25C1 JUMP JUMPDEST JUMPDEST DUP3 DUP3 DIV SWAP1 POP SWAP3 SWAP2 POP POP JUMP JUMPDEST PUSH0 DUP2 MLOAD SWAP1 POP PUSH2 0x262C DUP2 PUSH2 0x1E37 JUMP JUMPDEST SWAP3 SWAP2 POP POP JUMP JUMPDEST PUSH0 PUSH1 0x20 DUP3 DUP5 SUB SLT ISZERO PUSH2 0x2647 JUMPI PUSH2 0x2646 PUSH2 0x1E03 JUMP JUMPDEST JUMPDEST PUSH0 PUSH2 0x2654 DUP5 DUP3 DUP6 ADD PUSH2 0x261E JUMP JUMPDEST SWAP2 POP POP SWAP3 SWAP2 POP POP JUMP JUMPDEST PUSH0 PUSH1 0x20 DUP3 ADD SWAP1 POP PUSH2 0x2670 PUSH0 DUP4 ADD DUP5 PUSH2 0x2036 JUMP JUMPDEST SWAP3 SWAP2 POP POP JUMP JUMPDEST PUSH0 DUP2 MLOAD SWAP1 POP PUSH2 0x2684 DUP2 PUSH2 0x1E6A JUMP JUMPDEST SWAP3 SWAP2 POP POP JUMP JUMPDEST PUSH0 PUSH1 0x20 DUP3 DUP5 SUB SLT ISZERO PUSH2 0x269F JUMPI PUSH2 0x269E PUSH2 0x1E03 JUMP JUMPDEST JUMPDEST PUSH0 PUSH2 0x26AC DUP5 DUP3 DUP6 ADD PUSH2 0x2676 JUMP JUMPDEST SWAP2 POP POP SWAP3 SWAP2 POP POP JUMP JUMPDEST PUSH32 0x6E6F7420656E6F7567682072746B000000000000000000000000000000000000 PUSH0 DUP3 ADD MSTORE POP JUMP JUMPDEST PUSH0 PUSH2 0x26E9 PUSH1 0xE DUP4 PUSH2 0x2419 JUMP JUMPDEST SWAP2 POP PUSH2 0x26F4 DUP3 PUSH2 0x26B5 JUMP JUMPDEST PUSH1 0x20 DUP3 ADD SWAP1 POP SWAP2 SWAP1 POP JUMP JUMPDEST PUSH0 PUSH1 0x20 DUP3 ADD SWAP1 POP DUP2 DUP2 SUB PUSH0 DUP4 ADD MSTORE PUSH2 0x2716 DUP2 PUSH2 0x26DD JUMP JUMPDEST SWAP1 POP SWAP2 SWAP1 POP JUMP JUMPDEST PUSH0 PUSH1 0x40 DUP3 ADD SWAP1 POP PUSH2 0x2730 PUSH0 DUP4 ADD DUP6 PUSH2 0x2036 JUMP JUMPDEST PUSH2 0x273D PUSH1 0x20 DUP4 ADD DUP5 PUSH2 0x1EE4 JUMP JUMPDEST SWAP4 SWAP3 POP POP POP JUMP JUMPDEST PUSH0 DUP2 MLOAD SWAP1 POP PUSH2 0x2752 DUP2 PUSH2 0x216A JUMP JUMPDEST SWAP3 SWAP2 POP POP JUMP JUMPDEST PUSH0 PUSH1 0x20 DUP3 DUP5 SUB SLT ISZERO PUSH2 0x276D JUMPI PUSH2 0x276C PUSH2 0x1E03 JUMP JUMPDEST JUMPDEST PUSH0 PUSH2 0x277A DUP5 DUP3 DUP6 ADD PUSH2 0x2744 JUMP JUMPDEST SWAP2 POP POP SWAP3 SWAP2 POP POP JUMP JUMPDEST PUSH32 0x6400000000000000000000000000000000000000000000000000000000000000 PUSH0 DUP3 ADD MSTORE POP JUMP JUMPDEST PUSH0 PUSH2 0x27B7 PUSH1 0x1 DUP4 PUSH2 0x2419 JUMP JUMPDEST SWAP2 POP PUSH2 0x27C2 DUP3 PUSH2 0x2783 JUMP JUMPDEST PUSH1 0x20 DUP3 ADD SWAP1 POP SWAP2 SWAP1 POP JUMP JUMPDEST PUSH0 PUSH1 0x20 DUP3 ADD SWAP1 POP DUP2 DUP2 SUB PUSH0 DUP4 ADD MSTORE PUSH2 0x27E4 DUP2 PUSH2 0x27AB JUMP JUMPDEST SWAP1 POP SWAP2 SWAP1 POP JUMP JUMPDEST PUSH32 0x766F74696E672066696E69736865640000000000000000000000000000000000 PUSH0 DUP3 ADD MSTORE POP JUMP JUMPDEST PUSH0 PUSH2 0x281F PUSH1 0xF DUP4 PUSH2 0x2419 JUMP JUMPDEST SWAP2 POP PUSH2 0x282A DUP3 PUSH2 0x27EB JUMP JUMPDEST PUSH1 0x20 DUP3 ADD SWAP1 POP SWAP2 SWAP1 POP JUMP JUMPDEST PUSH0 PUSH1 0x20 DUP3 ADD SWAP1 POP DUP2 DUP2 SUB PUSH0 DUP4 ADD MSTORE PUSH2 0x284C DUP2 PUSH2 0x2813 JUMP JUMPDEST SWAP1 POP SWAP2 SWAP1 POP JUMP JUMPDEST PUSH32 0x616C726561647920766F74656400000000000000000000000000000000000000 PUSH0 DUP3 ADD MSTORE POP JUMP JUMPDEST PUSH0 PUSH2 0x2887 PUSH1 0xD DUP4 PUSH2 0x2419 JUMP JUMPDEST SWAP2 POP PUSH2 0x2892 DUP3 PUSH2 0x2853 JUMP JUMPDEST PUSH1 0x20 DUP3 ADD SWAP1 POP SWAP2 SWAP1 POP JUMP JUMPDEST PUSH0 PUSH1 0x20 DUP3 ADD SWAP1 POP DUP2 DUP2 SUB PUSH0 DUP4 ADD MSTORE PUSH2 0x28B4 DUP2 PUSH2 0x287B JUMP JUMPDEST SWAP1 POP SWAP2 SWAP1 POP JUMP JUMPDEST PUSH32 0x616D6F756E74206D757374206265206E6F7265207468616E2030000000000000 PUSH0 DUP3 ADD MSTORE POP JUMP JUMPDEST PUSH0 PUSH2 0x28EF PUSH1 0x1A DUP4 PUSH2 0x2419 JUMP JUMPDEST SWAP2 POP PUSH2 0x28FA DUP3 PUSH2 0x28BB JUMP JUMPDEST PUSH1 0x20 DUP3 ADD SWAP1 POP SWAP2 SWAP1 POP JUMP JUMPDEST PUSH0 PUSH1 0x20 DUP3 ADD SWAP1 POP DUP2 DUP2 SUB PUSH0 DUP4 ADD MSTORE PUSH2 0x291C DUP2 PUSH2 0x28E3 JUMP JUMPDEST SWAP1 POP SWAP2 SWAP1 POP JUMP JUMPDEST PUSH0 PUSH1 0x60 DUP3 ADD SWAP1 POP PUSH2 0x2936 PUSH0 DUP4 ADD DUP7 PUSH2 0x2036 JUMP JUMPDEST PUSH2 0x2943 PUSH1 0x20 DUP4 ADD DUP6 PUSH2 0x2036 JUMP JUMPDEST PUSH2 0x2950 PUSH1 0x40 DUP4 ADD DUP5 PUSH2 0x1EE4 JUMP JUMPDEST SWAP5 SWAP4 POP POP POP POP JUMP JUMPDEST PUSH0 PUSH1 0x40 DUP3 ADD SWAP1 POP PUSH2 0x296B PUSH0 DUP4 ADD DUP6 PUSH2 0x2322 JUMP JUMPDEST PUSH2 0x2978 PUSH1 0x20 DUP4 ADD DUP5 PUSH2 0x1EE4 JUMP JUMPDEST SWAP4 SWAP3 POP POP POP JUMP JUMPDEST PUSH32 0x6E6F7420612044414F206D656D62657200000000000000000000000000000000 PUSH0 DUP3 ADD MSTORE POP JUMP JUMPDEST PUSH0 PUSH2 0x29B3 PUSH1 0x10 DUP4 PUSH2 0x2419 JUMP JUMPDEST SWAP2 POP PUSH2 0x29BE DUP3 PUSH2 0x297F JUMP JUMPDEST PUSH1 0x20 DUP3 ADD SWAP1 POP SWAP2 SWAP1 POP JUMP JUMPDEST PUSH0 PUSH1 0x20 DUP3 ADD SWAP1 POP DUP2 DUP2 SUB PUSH0 DUP4 ADD MSTORE PUSH2 0x29E0 DUP2 PUSH2 0x29A7 JUMP JUMPDEST SWAP1 POP SWAP2 SWAP1 POP JUMP JUMPDEST PUSH32 0x70726F706F73616C20616C72656164792066696E697368656400000000000000 PUSH0 DUP3 ADD MSTORE POP JUMP JUMPDEST PUSH0 PUSH2 0x2A1B PUSH1 0x19 DUP4 PUSH2 0x2419 JUMP JUMPDEST SWAP2 POP PUSH2 0x2A26 DUP3 PUSH2 0x29E7 JUMP JUMPDEST PUSH1 0x20 DUP3 ADD SWAP1 POP SWAP2 SWAP1 POP JUMP JUMPDEST PUSH0 PUSH1 0x20 DUP3 ADD SWAP1 POP DUP2 DUP2 SUB PUSH0 DUP4 ADD MSTORE PUSH2 0x2A48 DUP2 PUSH2 0x2A0F JUMP JUMPDEST SWAP1 POP SWAP2 SWAP1 POP JUMP JUMPDEST PUSH32 0x6E6F7420612070726F706F736572000000000000000000000000000000000000 PUSH0 DUP3 ADD MSTORE POP JUMP JUMPDEST PUSH0 PUSH2 0x2A83 PUSH1 0xE DUP4 PUSH2 0x2419 JUMP JUMPDEST SWAP2 POP PUSH2 0x2A8E DUP3 PUSH2 0x2A4F JUMP JUMPDEST PUSH1 0x20 DUP3 ADD SWAP1 POP SWAP2 SWAP1 POP JUMP JUMPDEST PUSH0 PUSH1 0x20 DUP3 ADD SWAP1 POP DUP2 DUP2 SUB PUSH0 DUP4 ADD MSTORE PUSH2 0x2AB0 DUP2 PUSH2 0x2A77 JUMP JUMPDEST SWAP1 POP SWAP2 SWAP1 POP JUMP JUMPDEST PUSH32 0x616C72656164792064656C657465640000000000000000000000000000000000 PUSH0 DUP3 ADD MSTORE POP JUMP JUMPDEST PUSH0 PUSH2 0x2AEB PUSH1 0xF DUP4 PUSH2 0x2419 JUMP JUMPDEST SWAP2 POP PUSH2 0x2AF6 DUP3 PUSH2 0x2AB7 JUMP JUMPDEST PUSH1 0x20 DUP3 ADD SWAP1 POP SWAP2 SWAP1 POP JUMP JUMPDEST PUSH0 PUSH1 0x20 DUP3 ADD SWAP1 POP DUP2 DUP2 SUB PUSH0 DUP4 ADD MSTORE PUSH2 0x2B18 DUP2 PUSH2 0x2ADF JUMP JUMPDEST SWAP1 POP SWAP2 SWAP1 POP JUMP JUMPDEST PUSH32 0x4E487B7100000000000000000000000000000000000000000000000000000000 PUSH0 MSTORE PUSH1 0x32 PUSH1 0x4 MSTORE PUSH1 0x24 PUSH0 REVERT JUMPDEST PUSH32 0x6475726174696F6E206D757374206265206D6F7265207468616E203000000000 PUSH0 DUP3 ADD MSTORE POP JUMP JUMPDEST PUSH0 PUSH2 0x2B80 PUSH1 0x1C DUP4 PUSH2 0x2419 JUMP JUMPDEST SWAP2 POP PUSH2 0x2B8B DUP3 PUSH2 0x2B4C JUMP JUMPDEST PUSH1 0x20 DUP3 ADD SWAP1 POP SWAP2 SWAP1 POP JUMP JUMPDEST PUSH0 PUSH1 0x20 DUP3 ADD SWAP1 POP DUP2 DUP2 SUB PUSH0 DUP4 ADD MSTORE PUSH2 0x2BAD DUP2 PUSH2 0x2B74 JUMP JUMPDEST SWAP1 POP SWAP2 SWAP1 POP JUMP JUMPDEST PUSH0 PUSH2 0x2BBE DUP3 PUSH2 0x1E61 JUMP JUMPDEST SWAP2 POP PUSH32 0xFFFFFFFFFFFFFFFFFFFFFFFFFFFFFFFFFFFFFFFFFFFFFFFFFFFFFFFFFFFFFFFF DUP3 SUB PUSH2 0x2BF0 JUMPI PUSH2 0x2BEF PUSH2 0x24F9 JUMP JUMPDEST JUMPDEST PUSH1 0x1 DUP3 ADD SWAP1 POP SWAP2 SWAP1 POP JUMP JUMPDEST PUSH0 PUSH2 0x2C05 DUP3 PUSH2 0x1E61 JUMP JUMPDEST SWAP2 POP PUSH2 0x2C10 DUP4 PUSH2 0x1E61 JUMP JUMPDEST SWAP3 POP DUP3 DUP3 MUL PUSH2 0x2C1E DUP2 PUSH2 0x1E61 JUMP JUMPDEST SWAP2 POP DUP3 DUP3 DIV DUP5 EQ DUP4 ISZERO OR PUSH2 0x2C35 JUMPI PUSH2 0x2C34 PUSH2 0x24F9 JUMP JUMPDEST JUMPDEST POP SWAP3 SWAP2 POP POP JUMP JUMPDEST PUSH32 0x4120616E6420422074797065206D757374206265205765696768746564000000 PUSH0 DUP3 ADD MSTORE POP JUMP JUMPDEST PUSH0 PUSH2 0x2C70 PUSH1 0x1D DUP4 PUSH2 0x2419 JUMP JUMPDEST SWAP2 POP PUSH2 0x2C7B DUP3 PUSH2 0x2C3C JUMP JUMPDEST PUSH1 0x20 DUP3 ADD SWAP1 POP SWAP2 SWAP1 POP JUMP JUMPDEST PUSH0 PUSH1 0x20 DUP3 ADD SWAP1 POP DUP2 DUP2 SUB PUSH0 DUP4 ADD MSTORE PUSH2 0x2C9D DUP2 PUSH2 0x2C64 JUMP JUMPDEST SWAP1 POP SWAP2 SWAP1 POP JUMP JUMPDEST PUSH32 0x63616E206E6F7420626520576569676865640000000000000000000000000000 PUSH0 DUP3 ADD MSTORE POP JUMP JUMPDEST PUSH0 PUSH2 0x2CD8 PUSH1 0x12 DUP4 PUSH2 0x2419 JUMP JUMPDEST SWAP2 POP PUSH2 0x2CE3 DUP3 PUSH2 0x2CA4 JUMP JUMPDEST PUSH1 0x20 DUP3 ADD SWAP1 POP SWAP2 SWAP1 POP JUMP JUMPDEST PUSH0 PUSH1 0x20 DUP3 ADD SWAP1 POP DUP2 DUP2 SUB PUSH0 DUP4 ADD MSTORE PUSH2 0x2D05 DUP2 PUSH2 0x2CCC JUMP JUMPDEST SWAP1 POP SWAP2 SWAP1 POP JUMP JUMPDEST PUSH0 PUSH1 0x20 DUP3 ADD SWAP1 POP PUSH2 0x2D1F PUSH0 DUP4 ADD DUP5 PUSH2 0x2027 JUMP JUMPDEST SWAP3 SWAP2 POP POP JUMP INVALID LOG2 PUSH5 0x6970667358 0x22 SLT KECCAK256 PUSH10 0x884BD3AF6B48E809F647 CODESIZE PUSH5 0xCBB135F847 PUSH2 0xA61E INVALID SWAPN 0x3F 0xE8 PUSH8 0x9DE1FEEE59D16473 PUSH16 0x6C634300081E00330000000000000000 "
		},
		"gasEstimates": {
			"creation": {
				"codeDepositCost": "2322200",
				"executionCost": "infinite",
				"totalCost": "infinite"
			},
			"external": {
				"PROFI()": "infinite",
				"PROFIprice()": "2470",
				"RTK()": "infinite",
				"RTKprice()": "2447",
				"buyRTK()": "infinite",
				"createProposal(uint8,uint8,uint256,uint256,uint256,address)": "infinite",
				"delegate(address,uint256,uint256)": "infinite",
				"deleteProposal(uint256)": "infinite",
				"getMyDelegations(uint256)": "infinite",
				"getProposals(uint256)": "infinite",
				"isDAOMember(address)": "2914",
				"proposalCount()": "2513",
				"vote(uint256,uint256,bool)": "infinite"
			},
			"internal": {
				"checkQuorum(uint256)": "infinite"
			}
		},
		"methodIdentifiers": {
			"PROFI()": "4bf92a9f",
			"PROFIprice()": "1b751191",
			"RTK()": "59929ee8",
			"RTKprice()": "a8139957",
			"buyRTK()": "02845a2d",
			"createProposal(uint8,uint8,uint256,uint256,uint256,address)": "c7dde86d",
			"delegate(address,uint256,uint256)": "0185921e",
			"deleteProposal(uint256)": "8259d553",
			"getMyDelegations(uint256)": "97e6a960",
			"getProposals(uint256)": "2c72fdfc",
			"isDAOMember(address)": "b1e44d8f",
			"proposalCount()": "da35c664",
			"vote(uint256,uint256,bool)": "6a18ff7a"
		}
	},
	"abi": [
		{
			"inputs": [
				{
					"internalType": "address",
					"name": "_SystemToken",
					"type": "address"
				},
				{
					"internalType": "address",
					"name": "_WrapToken",
					"type": "address"
				},
				{
					"internalType": "address[]",
					"name": "_initialUsers",
					"type": "address[]"
				}
			],
			"stateMutability": "nonpayable",
			"type": "constructor"
		},
		{
			"anonymous": false,
			"inputs": [
				{
					"indexed": true,
					"internalType": "address",
					"name": "voter",
					"type": "address"
				},
				{
					"indexed": true,
					"internalType": "uint256",
					"name": "proposalId",
					"type": "uint256"
				},
				{
					"indexed": false,
					"internalType": "bool",
					"name": "support",
					"type": "bool"
				},
				{
					"indexed": false,
					"internalType": "uint256",
					"name": "weight",
					"type": "uint256"
				}
			],
			"name": "CastVote",
			"type": "event"
		},
		{
			"anonymous": false,
			"inputs": [
				{
					"indexed": true,
					"internalType": "address",
					"name": "from",
					"type": "address"
				},
				{
					"indexed": true,
					"internalType": "address",
					"name": "to",
					"type": "address"
				},
				{
					"indexed": true,
					"internalType": "uint256",
					"name": "proposalId",
					"type": "uint256"
				},
				{
					"indexed": false,
					"internalType": "uint256",
					"name": "value",
					"type": "uint256"
				}
			],
			"name": "Delegated",
			"type": "event"
		},
		{
			"anonymous": false,
			"inputs": [
				{
					"indexed": true,
					"internalType": "uint256",
					"name": "proposalId",
					"type": "uint256"
				}
			],
			"name": "Executed",
			"type": "event"
		},
		{
			"anonymous": false,
			"inputs": [
				{
					"indexed": true,
					"internalType": "uint256",
					"name": "proposalId",
					"type": "uint256"
				},
				{
					"indexed": false,
					"internalType": "enum DAO.ProposalType",
					"name": "proposalType",
					"type": "uint8"
				}
			],
			"name": "ProposalCreated",
			"type": "event"
		},
		{
			"inputs": [],
			"name": "PROFI",
			"outputs": [
				{
					"internalType": "contract SystemToken",
					"name": "",
					"type": "address"
				}
			],
			"stateMutability": "view",
			"type": "function"
		},
		{
			"inputs": [],
			"name": "PROFIprice",
			"outputs": [
				{
					"internalType": "uint256",
					"name": "",
					"type": "uint256"
				}
			],
			"stateMutability": "view",
			"type": "function"
		},
		{
			"inputs": [],
			"name": "RTK",
			"outputs": [
				{
					"internalType": "contract WrapToken",
					"name": "",
					"type": "address"
				}
			],
			"stateMutability": "view",
			"type": "function"
		},
		{
			"inputs": [],
			"name": "RTKprice",
			"outputs": [
				{
					"internalType": "uint256",
					"name": "",
					"type": "uint256"
				}
			],
			"stateMutability": "view",
			"type": "function"
		},
		{
			"inputs": [],
			"name": "buyRTK",
			"outputs": [],
			"stateMutability": "payable",
			"type": "function"
		},
		{
			"inputs": [
				{
					"internalType": "enum DAO.ProposalType",
					"name": "_proposalType",
					"type": "uint8"
				},
				{
					"internalType": "enum DAO.QuorumMechanism",
					"name": "_quorumMechanism",
					"type": "uint8"
				},
				{
					"internalType": "uint256",
					"name": "_durationMinutes",
					"type": "uint256"
				},
				{
					"internalType": "uint256",
					"name": "_valueForProposal",
					"type": "uint256"
				},
				{
					"internalType": "uint256",
					"name": "_valueForChange",
					"type": "uint256"
				},
				{
					"internalType": "address",
					"name": "_target",
					"type": "address"
				}
			],
			"name": "createProposal",
			"outputs": [
				{
					"internalType": "uint256",
					"name": "",
					"type": "uint256"
				}
			],
			"stateMutability": "nonpayable",
			"type": "function"
		},
		{
			"inputs": [
				{
					"internalType": "address",
					"name": "_to",
					"type": "address"
				},
				{
					"internalType": "uint256",
					"name": "_proposalId",
					"type": "uint256"
				},
				{
					"internalType": "uint256",
					"name": "_weight",
					"type": "uint256"
				}
			],
			"name": "delegate",
			"outputs": [],
			"stateMutability": "nonpayable",
			"type": "function"
		},
		{
			"inputs": [
				{
					"internalType": "uint256",
					"name": "_proposalId",
					"type": "uint256"
				}
			],
			"name": "deleteProposal",
			"outputs": [],
			"stateMutability": "nonpayable",
			"type": "function"
		},
		{
			"inputs": [
				{
					"internalType": "uint256",
					"name": "_proposalId",
					"type": "uint256"
				}
			],
			"name": "getMyDelegations",
			"outputs": [
				{
					"components": [
						{
							"internalType": "address",
							"name": "to",
							"type": "address"
						},
						{
							"internalType": "uint256",
							"name": "value",
							"type": "uint256"
						}
					],
					"internalType": "struct DAO.Delegation[]",
					"name": "",
					"type": "tuple[]"
				}
			],
			"stateMutability": "view",
			"type": "function"
		},
		{
			"inputs": [
				{
					"internalType": "uint256",
					"name": "_proposalId",
					"type": "uint256"
				}
			],
			"name": "getProposals",
			"outputs": [
				{
					"internalType": "enum DAO.ProposalStatus",
					"name": "status",
					"type": "uint8"
				},
				{
					"internalType": "uint256",
					"name": "startTime",
					"type": "uint256"
				},
				{
					"internalType": "uint256",
					"name": "endTime",
					"type": "uint256"
				},
				{
					"internalType": "enum DAO.QuorumMechanism",
					"name": "quorumMechanism",
					"type": "uint8"
				},
				{
					"internalType": "enum DAO.ProposalType",
					"name": "proposalType",
					"type": "uint8"
				},
				{
					"internalType": "address",
					"name": "proposer",
					"type": "address"
				},
				{
					"internalType": "address",
					"name": "target",
					"type": "address"
				}
			],
			"stateMutability": "view",
			"type": "function"
		},
		{
			"inputs": [
				{
					"internalType": "address",
					"name": "_addr",
					"type": "address"
				}
			],
			"name": "isDAOMember",
			"outputs": [
				{
					"internalType": "bool",
					"name": "",
					"type": "bool"
				}
			],
			"stateMutability": "view",
			"type": "function"
		},
		{
			"inputs": [],
			"name": "proposalCount",
			"outputs": [
				{
					"internalType": "uint256",
					"name": "",
					"type": "uint256"
				}
			],
			"stateMutability": "view",
			"type": "function"
		},
		{
			"inputs": [
				{
					"internalType": "uint256",
					"name": "_proposalId",
					"type": "uint256"
				},
				{
					"internalType": "uint256",
					"name": "_tokenAmount",
					"type": "uint256"
				},
				{
					"internalType": "bool",
					"name": "_support",
					"type": "bool"
				}
			],
			"name": "vote",
			"outputs": [],
			"stateMutability": "nonpayable",
			"type": "function"
		}
	]
}